{
  "_format": "hh-sol-artifact-1",
  "contractName": "FpmmAMM",
  "sourceName": "contracts/FpmmAMM.sol",
  "abi": [
    {
      "inputs": [
        {
          "internalType": "address",
          "name": "_marketCore",
          "type": "address"
        },
        {
          "internalType": "address",
          "name": "_outcomeToken1155",
          "type": "address"
        }
      ],
      "stateMutability": "nonpayable",
      "type": "constructor"
    },
    {
      "inputs": [],
      "name": "ArrayLengthMismatch",
      "type": "error"
    },
    {
      "inputs": [],
      "name": "InsufficientCollateral",
      "type": "error"
    },
    {
      "inputs": [],
      "name": "InsufficientLpShares",
      "type": "error"
    },
    {
      "inputs": [],
      "name": "InsufficientOutcomeTokens",
      "type": "error"
    },
    {
      "inputs": [],
      "name": "InvalidLiquidityParameter",
      "type": "error"
    },
    {
      "inputs": [],
      "name": "InvalidMarketId",
      "type": "error"
    },
    {
      "inputs": [],
      "name": "InvalidNumOutcomes",
      "type": "error"
    },
    {
      "inputs": [],
      "name": "InvalidOutcomeIndex",
      "type": "error"
    },
    {
      "inputs": [],
      "name": "MarketAlreadyRegistered",
      "type": "error"
    },
    {
      "inputs": [],
      "name": "MarketCoreMismatch",
      "type": "error"
    },
    {
      "inputs": [],
      "name": "MarketNotOpen",
      "type": "error"
    },
    {
      "inputs": [],
      "name": "MarketNotRegistered",
      "type": "error"
    },
    {
      "inputs": [],
      "name": "NoLiquidity",
      "type": "error"
    },
    {
      "inputs": [],
      "name": "ReentrancyGuardReentrantCall",
      "type": "error"
    },
    {
      "inputs": [
        {
          "internalType": "address",
          "name": "token",
          "type": "address"
        }
      ],
      "name": "SafeERC20FailedOperation",
      "type": "error"
    },
    {
      "inputs": [],
      "name": "SlippageExceeded",
      "type": "error"
    },
    {
      "inputs": [],
      "name": "ZeroAmount",
      "type": "error"
    },
    {
      "anonymous": false,
      "inputs": [
        {
          "indexed": true,
          "internalType": "bytes32",
          "name": "marketId",
          "type": "bytes32"
        },
        {
          "indexed": false,
          "internalType": "address",
          "name": "collateralToken",
          "type": "address"
        },
        {
          "indexed": false,
          "internalType": "uint8",
          "name": "numOutcomes",
          "type": "uint8"
        },
        {
          "indexed": false,
          "internalType": "uint256",
          "name": "liquidityParameterB",
          "type": "uint256"
        }
      ],
      "name": "FpmmMarketRegistered",
      "type": "event"
    },
    {
      "anonymous": false,
      "inputs": [
        {
          "indexed": true,
          "internalType": "bytes32",
          "name": "marketId",
          "type": "bytes32"
        },
        {
          "indexed": true,
          "internalType": "address",
          "name": "provider",
          "type": "address"
        },
        {
          "indexed": false,
          "internalType": "uint256",
          "name": "collateralAmount",
          "type": "uint256"
        },
        {
          "indexed": false,
          "internalType": "uint256",
          "name": "lpSharesMinted",
          "type": "uint256"
        }
      ],
      "name": "LiquidityAdded",
      "type": "event"
    },
    {
      "anonymous": false,
      "inputs": [
        {
          "indexed": true,
          "internalType": "bytes32",
          "name": "marketId",
          "type": "bytes32"
        },
        {
          "indexed": true,
          "internalType": "address",
          "name": "provider",
          "type": "address"
        },
        {
          "indexed": false,
          "internalType": "uint256",
          "name": "lpSharesBurned",
          "type": "uint256"
        },
        {
          "indexed": false,
          "internalType": "uint256",
          "name": "collateralOut",
          "type": "uint256"
        },
        {
          "indexed": false,
          "internalType": "uint256[]",
          "name": "outcomeTokensOut",
          "type": "uint256[]"
        }
      ],
      "name": "LiquidityRemoved",
      "type": "event"
    },
    {
      "anonymous": false,
      "inputs": [
        {
          "indexed": true,
          "internalType": "bytes32",
          "name": "marketId",
          "type": "bytes32"
        },
        {
          "indexed": true,
          "internalType": "address",
          "name": "buyer",
          "type": "address"
        },
        {
          "indexed": false,
          "internalType": "uint8",
          "name": "outcomeIndex",
          "type": "uint8"
        },
        {
          "indexed": false,
          "internalType": "uint256",
          "name": "collateralIn",
          "type": "uint256"
        },
        {
          "indexed": false,
          "internalType": "uint256",
          "name": "outcomeTokensOut",
          "type": "uint256"
        }
      ],
      "name": "OutcomeBought",
      "type": "event"
    },
    {
      "anonymous": false,
      "inputs": [
        {
          "indexed": true,
          "internalType": "bytes32",
          "name": "marketId",
          "type": "bytes32"
        },
        {
          "indexed": true,
          "internalType": "address",
          "name": "seller",
          "type": "address"
        },
        {
          "indexed": false,
          "internalType": "uint8",
          "name": "outcomeIndex",
          "type": "uint8"
        },
        {
          "indexed": false,
          "internalType": "uint256",
          "name": "outcomeTokensIn",
          "type": "uint256"
        },
        {
          "indexed": false,
          "internalType": "uint256",
          "name": "collateralOut",
          "type": "uint256"
        }
      ],
      "name": "OutcomeSold",
      "type": "event"
    },
    {
      "inputs": [
        {
          "internalType": "bytes32",
          "name": "marketId",
          "type": "bytes32"
        },
        {
          "internalType": "uint256",
          "name": "collateralAmount",
          "type": "uint256"
        },
        {
          "internalType": "uint256",
          "name": "minLpSharesOut",
          "type": "uint256"
        }
      ],
      "name": "addLiquidity",
      "outputs": [
        {
          "internalType": "uint256",
          "name": "lpSharesOut",
          "type": "uint256"
        }
      ],
      "stateMutability": "nonpayable",
      "type": "function"
    },
    {
      "inputs": [
        {
          "internalType": "bytes32",
          "name": "marketId",
          "type": "bytes32"
        },
        {
          "internalType": "uint8",
          "name": "outcomeIndex",
          "type": "uint8"
        },
        {
          "internalType": "uint256",
          "name": "collateralIn",
          "type": "uint256"
        },
        {
          "internalType": "uint256",
          "name": "minOutcomeOut",
          "type": "uint256"
        }
      ],
      "name": "buyOutcome",
      "outputs": [
        {
          "internalType": "uint256",
          "name": "outcomeOut",
          "type": "uint256"
        }
      ],
      "stateMutability": "nonpayable",
      "type": "function"
    },
    {
      "inputs": [
        {
          "internalType": "bytes32",
          "name": "marketId",
          "type": "bytes32"
        },
        {
          "internalType": "uint8",
          "name": "outcomeIndex",
          "type": "uint8"
        },
        {
          "internalType": "uint256",
          "name": "collateralIn",
          "type": "uint256"
        }
      ],
      "name": "calcBuyAmount",
      "outputs": [
        {
          "internalType": "uint256",
          "name": "",
          "type": "uint256"
        }
      ],
      "stateMutability": "view",
      "type": "function"
    },
    {
      "inputs": [
        {
          "internalType": "bytes32",
          "name": "marketId",
          "type": "bytes32"
        },
        {
          "internalType": "uint8",
          "name": "outcomeIndex",
          "type": "uint8"
        },
        {
          "internalType": "uint256",
          "name": "outcomeIn",
          "type": "uint256"
        }
      ],
      "name": "calcSellReturn",
      "outputs": [
        {
          "internalType": "uint256",
          "name": "",
          "type": "uint256"
        }
      ],
      "stateMutability": "view",
      "type": "function"
    },
    {
      "inputs": [
        {
          "internalType": "bytes32",
          "name": "marketId",
          "type": "bytes32"
        }
      ],
      "name": "getFpmmMarketConfig",
      "outputs": [
        {
          "internalType": "address",
          "name": "collateralToken",
          "type": "address"
        },
        {
          "internalType": "uint8",
          "name": "numOutcomes",
          "type": "uint8"
        },
        {
          "internalType": "uint256",
          "name": "liquidityParameterB",
          "type": "uint256"
        },
        {
          "internalType": "uint256[]",
          "name": "outcomeTokenIds",
          "type": "uint256[]"
        }
      ],
      "stateMutability": "view",
      "type": "function"
    },
    {
      "inputs": [
        {
          "internalType": "bytes32",
          "name": "marketId",
          "type": "bytes32"
        }
      ],
      "name": "getFpmmMarketState",
      "outputs": [
        {
          "internalType": "uint256",
          "name": "collateralBalance",
          "type": "uint256"
        },
        {
          "internalType": "int256[]",
          "name": "netTokensSold",
          "type": "int256[]"
        },
        {
          "internalType": "uint256",
          "name": "lpShareSupply",
          "type": "uint256"
        }
      ],
      "stateMutability": "view",
      "type": "function"
    },
    {
      "inputs": [
        {
          "internalType": "bytes32",
          "name": "marketId",
          "type": "bytes32"
        }
      ],
      "name": "getOutcomePrices",
      "outputs": [
        {
          "internalType": "uint256[]",
          "name": "prices",
          "type": "uint256[]"
        }
      ],
      "stateMutability": "view",
      "type": "function"
    },
    {
      "inputs": [
        {
          "internalType": "bytes32",
          "name": "",
          "type": "bytes32"
        }
      ],
      "name": "isRegistered",
      "outputs": [
        {
          "internalType": "bool",
          "name": "",
          "type": "bool"
        }
      ],
      "stateMutability": "view",
      "type": "function"
    },
    {
      "inputs": [
        {
          "internalType": "bytes32",
          "name": "",
          "type": "bytes32"
        },
        {
          "internalType": "address",
          "name": "",
          "type": "address"
        }
      ],
      "name": "lpShares",
      "outputs": [
        {
          "internalType": "uint256",
          "name": "",
          "type": "uint256"
        }
      ],
      "stateMutability": "view",
      "type": "function"
    },
    {
      "inputs": [],
      "name": "marketCore",
      "outputs": [
        {
          "internalType": "address",
          "name": "",
          "type": "address"
        }
      ],
      "stateMutability": "view",
      "type": "function"
    },
    {
      "inputs": [
        {
          "internalType": "bytes32",
          "name": "",
          "type": "bytes32"
        },
        {
          "internalType": "uint8",
          "name": "",
          "type": "uint8"
        }
      ],
      "name": "netOutcomeTokensSold",
      "outputs": [
        {
          "internalType": "int256",
          "name": "",
          "type": "int256"
        }
      ],
      "stateMutability": "view",
      "type": "function"
    },
    {
      "inputs": [
        {
          "internalType": "address",
          "name": "",
          "type": "address"
        },
        {
          "internalType": "address",
          "name": "",
          "type": "address"
        },
        {
          "internalType": "uint256[]",
          "name": "",
          "type": "uint256[]"
        },
        {
          "internalType": "uint256[]",
          "name": "",
          "type": "uint256[]"
        },
        {
          "internalType": "bytes",
          "name": "",
          "type": "bytes"
        }
      ],
      "name": "onERC1155BatchReceived",
      "outputs": [
        {
          "internalType": "bytes4",
          "name": "",
          "type": "bytes4"
        }
      ],
      "stateMutability": "pure",
      "type": "function"
    },
    {
      "inputs": [
        {
          "internalType": "address",
          "name": "",
          "type": "address"
        },
        {
          "internalType": "address",
          "name": "",
          "type": "address"
        },
        {
          "internalType": "uint256",
          "name": "",
          "type": "uint256"
        },
        {
          "internalType": "uint256",
          "name": "",
          "type": "uint256"
        },
        {
          "internalType": "bytes",
          "name": "",
          "type": "bytes"
        }
      ],
      "name": "onERC1155Received",
      "outputs": [
        {
          "internalType": "bytes4",
          "name": "",
          "type": "bytes4"
        }
      ],
      "stateMutability": "pure",
      "type": "function"
    },
    {
      "inputs": [],
      "name": "outcomeToken1155",
      "outputs": [
        {
          "internalType": "address",
          "name": "",
          "type": "address"
        }
      ],
      "stateMutability": "view",
      "type": "function"
    },
    {
      "inputs": [
        {
          "internalType": "bytes32",
          "name": "marketId",
          "type": "bytes32"
        },
        {
          "internalType": "uint256",
          "name": "liquidityParameterB",
          "type": "uint256"
        }
      ],
      "name": "registerFpmmMarket",
      "outputs": [],
      "stateMutability": "nonpayable",
      "type": "function"
    },
    {
      "inputs": [
        {
          "internalType": "bytes32",
          "name": "marketId",
          "type": "bytes32"
        },
        {
          "internalType": "uint256",
          "name": "lpSharesIn",
          "type": "uint256"
        },
        {
          "internalType": "uint256",
          "name": "minCollateralOut",
          "type": "uint256"
        },
        {
          "internalType": "uint256[]",
          "name": "minOutcomeAmounts",
          "type": "uint256[]"
        }
      ],
      "name": "removeLiquidity",
      "outputs": [
        {
          "internalType": "uint256",
          "name": "collateralOut",
          "type": "uint256"
        },
        {
          "internalType": "uint256[]",
          "name": "outcomeTokensOut",
          "type": "uint256[]"
        }
      ],
      "stateMutability": "nonpayable",
      "type": "function"
    },
    {
      "inputs": [
        {
          "internalType": "bytes32",
          "name": "marketId",
          "type": "bytes32"
        },
        {
          "internalType": "uint8",
          "name": "outcomeIndex",
          "type": "uint8"
        },
        {
          "internalType": "uint256",
          "name": "outcomeIn",
          "type": "uint256"
        },
        {
          "internalType": "uint256",
          "name": "minCollateralOut",
          "type": "uint256"
        }
      ],
      "name": "sellOutcome",
      "outputs": [
        {
          "internalType": "uint256",
          "name": "collateralOut",
          "type": "uint256"
        }
      ],
      "stateMutability": "nonpayable",
      "type": "function"
    },
    {
      "inputs": [
        {
          "internalType": "bytes4",
          "name": "interfaceId",
          "type": "bytes4"
        }
      ],
      "name": "supportsInterface",
      "outputs": [
        {
          "internalType": "bool",
          "name": "",
          "type": "bool"
        }
      ],
      "stateMutability": "pure",
      "type": "function"
    }
  ],
  "bytecode": "0x60c06040523480156200001157600080fd5b50604051620027593803806200275983398101604081905262000034916200006e565b60016000556001600160a01b039182166080521660a052620000a6565b80516001600160a01b03811681146200006957600080fd5b919050565b600080604083850312156200008257600080fd5b6200008d8362000051565b91506200009d6020840162000051565b90509250929050565b60805160a05161265c620000fd600039600081816102d1015281816106f301528181610b260152610e990152600081816103430152818161059301528181610d870152818161100c0152611223015261265c6000f3fe608060405234801561001057600080fd5b50600436106101165760003560e01c8063aad8d92e116100a2578063bfa1efae11610071578063bfa1efae146102cc578063c164c42c1461030b578063d471975d1461031e578063efda26161461033e578063f23a6e611461036557600080fd5b8063aad8d92e14610219578063b74b38c414610244578063baed64a11461026f578063bc197c811461029157600080fd5b80633a0ce508116100e95780633a0ce508146101aa5780633f5c944e146101cb578063627cad93146101de57806371ace7ec146101f3578063926cabc51461020657600080fd5b806301ffc9a71461011b5780631923e44f1461014357806327258b221461016657806329951e7714610189575b600080fd5b61012e610129366004611edf565b610385565b60405190151581526020015b60405180910390f35b610156610151366004611f09565b6103bc565b60405161013a9493929190611f5d565b61012e610174366004611f09565b60056020526000908152604090205460ff1681565b61019c610197366004611fa9565b6104b6565b60405190815260200161013a565b6101bd6101b8366004612032565b6107b5565b60405161013a929190612093565b61019c6101d9366004611fa9565b610caa565b6101f16101ec3660046120ac565b610fa2565b005b61019c6102013660046120ce565b6111b3565b61019c6102143660046120fa565b6113f1565b61019c610227366004612147565b600460209081526000928352604080842090915290825290205481565b61019c610252366004612177565b600360209081526000928352604080842090915290825290205481565b61028261027d366004611f09565b6113fe565b60405161013a9392919061219c565b6102b361029f366004612235565b63bc197c8160e01b98975050505050505050565b6040516001600160e01b0319909116815260200161013a565b6102f37f000000000000000000000000000000000000000000000000000000000000000081565b6040516001600160a01b03909116815260200161013a565b61019c6103193660046120fa565b611510565b61033161032c366004611f09565b61151d565b60405161013a91906122f4565b6102f37f000000000000000000000000000000000000000000000000000000000000000081565b6102b3610373366004612307565b63f23a6e6160e01b9695505050505050565b60006001600160e01b03198216630271189760e51b14806103b657506001600160e01b031982166301ffc9a760e01b145b92915050565b6000818152600560205260408120548190819060609060ff166103f257604051631d5a9fa160e01b815260040160405180910390fd5b60008581526001602081905260409091208054918101546001600160a01b0383169650600160a01b90920460ff1694509092508367ffffffffffffffff81111561043e5761043e612383565b604051908082528060200260200182016040528015610467578160200160208202803683370190505b50915060005b8460ff168160ff1610156104ad57600887901b60ff821617838260ff168151811061049a5761049a612399565b602090810291909101015260010161046d565b50509193509193565b60006104c0611732565b60008581526005602052604090205460ff166104ef57604051631d5a9fa160e01b815260040160405180910390fd5b8260000361051057604051631f2a200560e01b815260040160405180910390fd5b60008581526001602090815260408083206002909252909120815460ff600160a01b9091048116908716106105585760405163bdc9571560e01b815260040160405180910390fd5b806001015460000361057d57604051636180f03f60e11b815260040160405180910390fd5b60405163246f98c960e11b8152600481018890527f00000000000000000000000000000000000000000000000000000000000000006001600160a01b0316906348df319290602401602060405180830381865afa1580156105e2573d6000803e3d6000fd5b505050506040513d601f19601f8201168201806040525081019061060691906123af565b6106235760405163300b4e3360e21b815260040160405180910390fd5b61062e87878761175c565b92508383101561065157604051638199f5f360e01b815260040160405180910390fd5b8154610668906001600160a01b031633308861180e565b8481600001600082825461067c91906123e7565b9091555050600087815260036020908152604080832060ff8a168452909152812080548592906106ad9084906123fa565b9091555060009050600888901b60ff88161760405163731133e960e01b8152336004820152602481018290526044810186905260806064820152600060848201529091507f00000000000000000000000000000000000000000000000000000000000000006001600160a01b03169063731133e99060a401600060405180830381600087803b15801561073f57600080fd5b505af1158015610753573d6000803e3d6000fd5b50506040805160ff8b168152602081018a90529081018790523392508a91507f06a73dbdc31376a40b6657d1cc67387168028f1e174c097219236008af69c375906060015b60405180910390a35050506107ad6001600055565b949350505050565b600060606107c1611732565b60008781526005602052604090205460ff166107f057604051631d5a9fa160e01b815260040160405180910390fd5b8560000361081157604051631f2a200560e01b815260040160405180910390fd5b600087815260016020908152604080832060029092529091208154600160a01b900460ff1685146108555760405163512509d360e11b815260040160405180910390fd5b6000898152600460209081526040808320338452909152902054808911156108905760405163765bcc1b60e01b815260040160405180910390fd5b60018201546000906108aa670de0b6b3a76400008c612422565b6108b4919061244f565b9050670de0b6b3a76400008184600001546108cf9190612422565b6108d9919061244f565b9550888610156108fc57604051638199f5f360e01b815260040160405180910390fd5b8354600160a01b900460ff1667ffffffffffffffff81111561092057610920612383565b604051908082528060200260200182016040528015610949578160200160208202803683370190505b50945060005b845460ff600160a01b90910481169082161015610a615760008c815260036020908152604080832060ff85168452909152812054908112156109dc57600061099682612463565b9050670de0b6b3a76400006109ab8583612422565b6109b5919061244f565b888460ff16815181106109ca576109ca612399565b60200260200101818152505050610a00565b6000878360ff16815181106109f3576109f3612399565b6020026020010181815250505b89898360ff16818110610a1557610a15612399565b90506020020135878360ff1681518110610a3157610a31612399565b60200260200101511015610a5857604051638199f5f360e01b815260040160405180910390fd5b5060010161094f565b5085836000016000828254610a76919061247f565b9250508190555089836001016000828254610a91919061247f565b90915550610aa190508a8361247f565b60008c8152600460209081526040808320338085529252909120919091558454610ad7916001600160a01b03909116908861187b565b60005b845460ff600160a01b90910481169082161015610c4b576000868260ff1681518110610b0857610b08612399565b60200260200101511115610c4357600060088d901b60ff83161790507f00000000000000000000000000000000000000000000000000000000000000006001600160a01b031663f242432a3033848b8760ff1681518110610b6b57610b6b612399565b60209081029190910101516040516001600160e01b031960e087901b1681526001600160a01b0394851660048201529390921660248401526044830152606482015260a06084820152600060a482015260c401600060405180830381600087803b158015610bd857600080fd5b505af1158015610bec573d6000803e3d6000fd5b50505050868260ff1681518110610c0557610c05612399565b60209081029190910181015160008f815260038352604080822060ff87168352909352918220805491929091610c3c9084906123fa565b9091555050505b600101610ada565b50336001600160a01b03168b7fad0ef9c8620ac51fe672209874d38fbe67695cac2baf954fd5eee7b1c970185e8c8989604051610c8a93929190612492565b60405180910390a350505050610ca06001600055565b9550959350505050565b6000610cb4611732565b60008581526005602052604090205460ff16610ce357604051631d5a9fa160e01b815260040160405180910390fd5b82600003610d0457604051631f2a200560e01b815260040160405180910390fd5b60008581526001602090815260408083206002909252909120815460ff600160a01b909104811690871610610d4c5760405163bdc9571560e01b815260040160405180910390fd5b8060010154600003610d7157604051636180f03f60e11b815260040160405180910390fd5b60405163246f98c960e11b8152600481018890527f00000000000000000000000000000000000000000000000000000000000000006001600160a01b0316906348df319290602401602060405180830381865afa158015610dd6573d6000803e3d6000fd5b505050506040513d601f19601f82011682018060405250810190610dfa91906123af565b610e175760405163300b4e3360e21b815260040160405180910390fd5b610e228787876118b1565b925083831015610e4557604051638199f5f360e01b815260040160405180910390fd5b8054831115610e6757604051633a23d82560e01b815260040160405180910390fd5b6000600888901b60ff881617604051637a94c56560e11b815233600482015260248101829052604481018890529091507f00000000000000000000000000000000000000000000000000000000000000006001600160a01b03169063f5298aca90606401600060405180830381600087803b158015610ee557600080fd5b505af1158015610ef9573d6000803e3d6000fd5b5050505083826000016000828254610f11919061247f565b9091555050600088815260036020908152604080832060ff8b16845290915281208054889290610f429084906124b1565b90915550508254610f5d906001600160a01b0316338661187b565b6040805160ff8916815260208101889052908101859052339089907f7ef5663c63e3a6d4afba89949d7090356c4cd62c7e12cc7c7a162a38f803557390606001610798565b60008281526005602052604090205460ff1615610fd25760405163043bf2f760e51b815260040160405180910390fd5b80600003610ff357604051630b281d1960e31b815260040160405180910390fd5b604051634d0ee9f360e01b8152600481018390526000907f00000000000000000000000000000000000000000000000000000000000000006001600160a01b031690634d0ee9f39060240160c060405180830381865afa15801561105b573d6000803e3d6000fd5b505050506040513d601f19601f8201168201806040525081019061107f919061250b565b90506002816060015160ff16108061109e57506008816060015160ff16115b156110bc5760405163566f431760e11b815260040160405180910390fd5b6000838152600560209081526040808320805460ff1916600190811790915581516060808201845286516001600160a01b039081168352878201805160ff9081168589019081528588018c81528d8b52878a52888b209651875492518416600160a01b026001600160a81b0319909316908616179190911786555194860194909455855180870187528881528088018981528c8a5260028952988790209051815597519790940196909655865192518451939096168352941692810192909252810184905284917f9bc0c37aedf5901e54d38983128f6c05ab902772f0efa35d45d9693a8190ba3c910160405180910390a2505050565b60006111bd611732565b60008481526005602052604090205460ff166111ec57604051631d5a9fa160e01b815260040160405180910390fd5b8260000361120d57604051631f2a200560e01b815260040160405180910390fd5b60405163246f98c960e11b8152600481018590527f00000000000000000000000000000000000000000000000000000000000000006001600160a01b0316906348df319290602401602060405180830381865afa158015611272573d6000803e3d6000fd5b505050506040513d601f19601f8201168201806040525081019061129691906123af565b6112b35760405163300b4e3360e21b815260040160405180910390fd5b6000848152600160209081526040808320600290925290912081546112e3906001600160a01b031633308861180e565b806001015460000361130057683635c9adc5dea00000925061131e565b805460018201546113119087612422565b61131b919061244f565b92505b8383101561133f57604051638199f5f360e01b815260040160405180910390fd5b8481600001600082825461135391906123e7565b925050819055508281600101600082825461136e91906123e7565b909155505060008681526004602090815260408083203384529091528120805485929061139c9084906123e7565b90915550506040805186815260208101859052339188917f47b0d68dd7ea64624970139aa6c676e4e099d12cee4af2dfe393f2353fea86b1910160405180910390a350506113ea6001600055565b9392505050565b60006107ad84848461175c565b600081815260056020526040812054606090829060ff1661143257604051631d5a9fa160e01b815260040160405180910390fd5b506000838152600160208181526040808420600290925290922080549181015483549295509291600160a01b900460ff1667ffffffffffffffff81111561147b5761147b612383565b6040519080825280602002602001820160405280156114a4578160200160208202803683370190505b50935060005b825460ff600160a01b9091048116908216101561150657600087815260036020908152604080832060ff851680855292529091205486519091879181106114f3576114f3612399565b60209081029190910101526001016114aa565b5050509193909250565b60006107ad8484846118b1565b60008181526005602052604090205460609060ff1661154f57604051631d5a9fa160e01b815260040160405180910390fd5b60008281526001602081905260409091208054918101549091600160a01b900460ff16908167ffffffffffffffff81111561158c5761158c612383565b6040519080825280602002602001820160405280156115b5578160200160208202803683370190505b50935060008260ff1667ffffffffffffffff8111156115d6576115d6612383565b6040519080825280602002602001820160405280156115ff578160200160208202803683370190505b5090506000805b8460ff168160ff1610156116b257600088815260036020908152604080832060ff851684529091528120549085611645670de0b6b3a7640000846125b4565b61164f91906125e4565b905061165a8161191d565b858460ff168151811061166f5761166f612399565b602002602001018181525050848360ff168151811061169057611690612399565b6020026020010151846116a391906123e7565b93508260010192505050611606565b5060005b8460ff168160ff1610156117275781670de0b6b3a7640000848360ff16815181106116e3576116e3612399565b60200260200101516116f59190612422565b6116ff919061244f565b878260ff168151811061171457611714612399565b60209081029190910101526001016116b6565b505050505050919050565b60026000540361175557604051633ee5aeb560e01b815260040160405180910390fd5b6002600055565b60008381526001602081905260408220908101548154600160a01b900460ff1683611788888385611ad3565b9050600061179687836123e7565b90506000806117a6896002612422565b90505b60016117b5838361247f565b111561180057600060026117c983856123e7565b6117d3919061244f565b905060006117e48d8d848a8c611b75565b90508481116117f5578193506117f9565b8192505b50506117a9565b509998505050505050505050565b6040516001600160a01b0384811660248301528381166044830152606482018390526118759186918216906323b872dd906084015b604051602081830303815290604052915060e01b6020820180516001600160e01b038381831617835250505050611c34565b50505050565b6040516001600160a01b038381166024830152604482018390526118ac91859182169063a9059cbb90606401611843565b505050565b60008381526001602081905260408220908101548154600160a01b900460ff16836118dd888385611ad3565b905060006118ee8989898688611ca9565b90508082111561190e57611902818361247f565b955050505050506113ea565b50600098975050505050505050565b600068070c1cc73b00c8000082131561193d5768070c1cc73b00c8000091505b680238fd42c5cf03ffff1982121561195757506000919050565b8160000361196e5750670de0b6b3a7640000919050565b6000821280156119845761198183612463565b92505b6725b946ebc0b3617360006119a1670de0b6b3a76400008661244f565b905060006119b7670de0b6b3a764000087612612565b9050670de0b6b3a7640000835b8315611a2057836001166001036119f557670de0b6b3a76400006119e88284612422565b6119f2919061244f565b91505b670de0b6b3a7640000611a088280612422565b611a12919061244f565b9050600184901c93506119c4565b8215611aa257670de0b6b3a76400008060015b600c8111611a7f57611a4d670de0b6b3a764000082612422565b611a578785612422565b611a61919061244f565b9250611a6d83836123e7565b915060018310611a7f57600101611a33565b50670de0b6b3a7640000611a938286612422565b611a9d919061244f565b935050505b8515611ac85781611abb670de0b6b3a764000080612422565b611ac5919061244f565b91505b509695505050505050565b600080805b8460ff168160ff161015611b4557600086815260036020908152604080832060ff851684529091528120549085611b17670de0b6b3a7640000846125b4565b611b2191906125e4565b9050611b2c8161191d565b611b3690856123e7565b93508260010192505050611ad8565b50670de0b6b3a7640000611b5882611d36565b611b629085612422565b611b6c919061244f565b95945050505050565b600080805b8460ff168160ff161015611c0257600088815260036020908152604080832060ff80861680865291909352922054919089169003611bbf57611bbc87826123fa565b90505b600085611bd4670de0b6b3a7640000846125b4565b611bde91906125e4565b9050611be98161191d565b611bf390856123e7565b93508260010192505050611b7a565b50670de0b6b3a7640000611c1582611d36565b611c1f9085612422565b611c29919061244f565b979650505050505050565b600080602060008451602086016000885af180611c57576040513d6000823e3d81fd5b50506000513d91508115611c6f578060011415611c7c565b6001600160a01b0384163b155b1561187557604051635274afe760e01b81526001600160a01b038516600482015260240160405180910390fd5b600080805b8460ff168160ff161015611c0257600088815260036020908152604080832060ff80861680865291909352922054919089169003611cf357611cf087826124b1565b90505b600085611d08670de0b6b3a7640000846125b4565b611d1291906125e4565b9050611d1d8161191d565b611d2790856123e7565b93508260010192505050611cae565b600081600003611d4857506000919050565b670de0b6b3a76400008203611d5f57506000919050565b6725b946ebc0b36173670de0b6b3a764000060005b828510611dab5782611d8e670de0b6b3a764000087612422565b611d98919061244f565b9450611da482826123e7565b9050611d74565b670de0b6b3a7640000851015611deb57670de0b6b3a7640000611dce8487612422565b611dd8919061244f565b9450611de4828261247f565b9050611dab565b6000611dff670de0b6b3a7640000876123e7565b670de0b6b3a7640000611e12818961247f565b611e1c9190612422565b611e26919061244f565b90506000670de0b6b3a7640000611e3d8380612422565b611e47919061244f565b9050818060015b60148111611ebc57670de0b6b3a7640000611e698585612422565b611e73919061244f565b92506000611e82826002612422565b611e8d9060016123e7565b611e97908561244f565b905080600003611ea75750611ebc565b611eb181846123e7565b925050600101611e4e565b50611ec8816002612422565b611ed290866123e7565b9998505050505050505050565b600060208284031215611ef157600080fd5b81356001600160e01b0319811681146113ea57600080fd5b600060208284031215611f1b57600080fd5b5035919050565b600081518084526020808501945080840160005b83811015611f5257815187529582019590820190600101611f36565b509495945050505050565b60018060a01b038516815260ff84166020820152826040820152608060608201526000611f8d6080830184611f22565b9695505050505050565b60ff81168114611fa657600080fd5b50565b60008060008060808587031215611fbf57600080fd5b843593506020850135611fd181611f97565b93969395505050506040820135916060013590565b60008083601f840112611ff857600080fd5b50813567ffffffffffffffff81111561201057600080fd5b6020830191508360208260051b850101111561202b57600080fd5b9250929050565b60008060008060006080868803121561204a57600080fd5b853594506020860135935060408601359250606086013567ffffffffffffffff81111561207657600080fd5b61208288828901611fe6565b969995985093965092949392505050565b8281526040602082015260006107ad6040830184611f22565b600080604083850312156120bf57600080fd5b50508035926020909101359150565b6000806000606084860312156120e357600080fd5b505081359360208301359350604090920135919050565b60008060006060848603121561210f57600080fd5b83359250602084013561212181611f97565b929592945050506040919091013590565b6001600160a01b0381168114611fa657600080fd5b6000806040838503121561215a57600080fd5b82359150602083013561216c81612132565b809150509250929050565b6000806040838503121561218a57600080fd5b82359150602083013561216c81611f97565b6000606082018583526020606081850152818651808452608086019150828801935060005b818110156121dd578451835293830193918301916001016121c1565b5050809350505050826040830152949350505050565b60008083601f84011261220557600080fd5b50813567ffffffffffffffff81111561221d57600080fd5b60208301915083602082850101111561202b57600080fd5b60008060008060008060008060a0898b03121561225157600080fd5b883561225c81612132565b9750602089013561226c81612132565b9650604089013567ffffffffffffffff8082111561228957600080fd5b6122958c838d01611fe6565b909850965060608b01359150808211156122ae57600080fd5b6122ba8c838d01611fe6565b909650945060808b01359150808211156122d357600080fd5b506122e08b828c016121f3565b999c989b5096995094979396929594505050565b6020815260006113ea6020830184611f22565b60008060008060008060a0878903121561232057600080fd5b863561232b81612132565b9550602087013561233b81612132565b94506040870135935060608701359250608087013567ffffffffffffffff81111561236557600080fd5b61237189828a016121f3565b979a9699509497509295939492505050565b634e487b7160e01b600052604160045260246000fd5b634e487b7160e01b600052603260045260246000fd5b6000602082840312156123c157600080fd5b815180151581146113ea57600080fd5b634e487b7160e01b600052601160045260246000fd5b808201808211156103b6576103b66123d1565b808201828112600083128015821682158216171561241a5761241a6123d1565b505092915050565b80820281158282048414176103b6576103b66123d1565b634e487b7160e01b600052601260045260246000fd5b60008261245e5761245e612439565b500490565b6000600160ff1b8201612478576124786123d1565b5060000390565b818103818111156103b6576103b66123d1565b838152826020820152606060408201526000611b6c6060830184611f22565b81810360008312801583831316838312821617156124d1576124d16123d1565b5092915050565b80516124e381612132565b919050565b805167ffffffffffffffff811681146124e357600080fd5b80516124e381611f97565b600060c0828403121561251d57600080fd5b60405160c0810181811067ffffffffffffffff8211171561254e57634e487b7160e01b600052604160045260246000fd5b60405261255a836124d8565b8152612568602084016124e8565b602082015261257960408401612500565b604082015261258a60608401612500565b606082015261259b608084016124d8565b608082015260a083015160a08201528091505092915050565b80820260008212600160ff1b841416156125d0576125d06123d1565b81810583148215176103b6576103b66123d1565b6000826125f3576125f3612439565b600160ff1b82146000198414161561260d5761260d6123d1565b500590565b60008261262157612621612439565b50069056fea264697066735822122030e046bca3dc141651fdadcf2317d515c7103bae61eb515eb1e56914089dad0d64736f6c63430008140033",
  "linkReferences": {},
  "deployedLinkReferences": {}
}