{
  "_format": "hh-sol-artifact-1",
  "contractName": "MarketCore",
  "sourceName": "contracts/MarketCore.sol",
  "abi": [
    {
      "inputs": [
        {
          "internalType": "address",
          "name": "_outcomeToken1155",
          "type": "address"
        }
      ],
      "stateMutability": "nonpayable",
      "type": "constructor"
    },
    {
      "inputs": [],
      "name": "DeadlineNotPassed",
      "type": "error"
    },
    {
      "inputs": [],
      "name": "EarlyResolutionNotAllowed",
      "type": "error"
    },
    {
      "inputs": [],
      "name": "InvalidCollateralToken",
      "type": "error"
    },
    {
      "inputs": [],
      "name": "InvalidMarketInvalid",
      "type": "error"
    },
    {
      "inputs": [],
      "name": "InvalidNumOutcomes",
      "type": "error"
    },
    {
      "inputs": [],
      "name": "InvalidOracle",
      "type": "error"
    },
    {
      "inputs": [],
      "name": "InvalidOutcomeIndex",
      "type": "error"
    },
    {
      "inputs": [],
      "name": "MarketAlreadyExists",
      "type": "error"
    },
    {
      "inputs": [],
      "name": "MarketAlreadyResolved",
      "type": "error"
    },
    {
      "inputs": [],
      "name": "MarketNotFound",
      "type": "error"
    },
    {
      "inputs": [],
      "name": "MarketNotOpen",
      "type": "error"
    },
    {
      "inputs": [],
      "name": "MarketNotResolvable",
      "type": "error"
    },
    {
      "inputs": [],
      "name": "MarketNotResolved",
      "type": "error"
    },
    {
      "inputs": [],
      "name": "NotWinningOutcome",
      "type": "error"
    },
    {
      "inputs": [],
      "name": "OracleNotResolved",
      "type": "error"
    },
    {
      "inputs": [],
      "name": "ReentrancyGuardReentrantCall",
      "type": "error"
    },
    {
      "inputs": [
        {
          "internalType": "address",
          "name": "token",
          "type": "address"
        }
      ],
      "name": "SafeERC20FailedOperation",
      "type": "error"
    },
    {
      "inputs": [],
      "name": "ZeroAmount",
      "type": "error"
    },
    {
      "anonymous": false,
      "inputs": [
        {
          "indexed": true,
          "internalType": "bytes32",
          "name": "marketId",
          "type": "bytes32"
        },
        {
          "indexed": true,
          "internalType": "address",
          "name": "depositor",
          "type": "address"
        },
        {
          "indexed": false,
          "internalType": "uint256",
          "name": "amount",
          "type": "uint256"
        }
      ],
      "name": "CollateralDeposited",
      "type": "event"
    },
    {
      "anonymous": false,
      "inputs": [
        {
          "indexed": true,
          "internalType": "bytes32",
          "name": "marketId",
          "type": "bytes32"
        },
        {
          "indexed": true,
          "internalType": "address",
          "name": "collateralToken",
          "type": "address"
        },
        {
          "indexed": true,
          "internalType": "address",
          "name": "oracle",
          "type": "address"
        },
        {
          "indexed": false,
          "internalType": "bytes32",
          "name": "questionId",
          "type": "bytes32"
        },
        {
          "indexed": false,
          "internalType": "uint64",
          "name": "marketDeadline",
          "type": "uint64"
        },
        {
          "indexed": false,
          "internalType": "uint8",
          "name": "numOutcomes",
          "type": "uint8"
        },
        {
          "indexed": false,
          "internalType": "string",
          "name": "metadataURI",
          "type": "string"
        },
        {
          "indexed": false,
          "internalType": "address",
          "name": "creator",
          "type": "address"
        }
      ],
      "name": "MarketCreated",
      "type": "event"
    },
    {
      "anonymous": false,
      "inputs": [
        {
          "indexed": true,
          "internalType": "bytes32",
          "name": "marketId",
          "type": "bytes32"
        },
        {
          "indexed": false,
          "internalType": "uint8",
          "name": "winningOutcomeIndex",
          "type": "uint8"
        },
        {
          "indexed": false,
          "internalType": "bool",
          "name": "isInvalid",
          "type": "bool"
        }
      ],
      "name": "MarketFinalized",
      "type": "event"
    },
    {
      "anonymous": false,
      "inputs": [
        {
          "indexed": true,
          "internalType": "bytes32",
          "name": "marketId",
          "type": "bytes32"
        },
        {
          "indexed": true,
          "internalType": "address",
          "name": "requester",
          "type": "address"
        }
      ],
      "name": "ResolutionRequested",
      "type": "event"
    },
    {
      "anonymous": false,
      "inputs": [
        {
          "indexed": true,
          "internalType": "bytes32",
          "name": "marketId",
          "type": "bytes32"
        },
        {
          "indexed": true,
          "internalType": "address",
          "name": "redeemer",
          "type": "address"
        },
        {
          "indexed": false,
          "internalType": "uint8",
          "name": "outcomeIndex",
          "type": "uint8"
        },
        {
          "indexed": false,
          "internalType": "uint256",
          "name": "amount",
          "type": "uint256"
        },
        {
          "indexed": false,
          "internalType": "uint256",
          "name": "collateralPaid",
          "type": "uint256"
        }
      ],
      "name": "WinningsRedeemed",
      "type": "event"
    },
    {
      "inputs": [],
      "name": "FLAG_EARLY_RESOLUTION",
      "outputs": [
        {
          "internalType": "uint8",
          "name": "",
          "type": "uint8"
        }
      ],
      "stateMutability": "view",
      "type": "function"
    },
    {
      "inputs": [],
      "name": "FLAG_INVALID_REFUND",
      "outputs": [
        {
          "internalType": "uint8",
          "name": "",
          "type": "uint8"
        }
      ],
      "stateMutability": "view",
      "type": "function"
    },
    {
      "inputs": [],
      "name": "MAX_OUTCOMES",
      "outputs": [
        {
          "internalType": "uint8",
          "name": "",
          "type": "uint8"
        }
      ],
      "stateMutability": "view",
      "type": "function"
    },
    {
      "inputs": [],
      "name": "MIN_OUTCOMES",
      "outputs": [
        {
          "internalType": "uint8",
          "name": "",
          "type": "uint8"
        }
      ],
      "stateMutability": "view",
      "type": "function"
    },
    {
      "inputs": [
        {
          "internalType": "bytes32",
          "name": "marketId",
          "type": "bytes32"
        },
        {
          "internalType": "uint8",
          "name": "outcomeIndex",
          "type": "uint8"
        }
      ],
      "name": "computeOutcomeTokenId",
      "outputs": [
        {
          "internalType": "uint256",
          "name": "",
          "type": "uint256"
        }
      ],
      "stateMutability": "pure",
      "type": "function"
    },
    {
      "inputs": [
        {
          "components": [
            {
              "internalType": "address",
              "name": "collateralToken",
              "type": "address"
            },
            {
              "internalType": "uint64",
              "name": "marketDeadline",
              "type": "uint64"
            },
            {
              "internalType": "uint8",
              "name": "configFlags",
              "type": "uint8"
            },
            {
              "internalType": "uint8",
              "name": "numOutcomes",
              "type": "uint8"
            },
            {
              "internalType": "address",
              "name": "oracle",
              "type": "address"
            },
            {
              "internalType": "bytes32",
              "name": "questionId",
              "type": "bytes32"
            }
          ],
          "internalType": "struct MarketCore.MarketParams",
          "name": "params",
          "type": "tuple"
        },
        {
          "internalType": "string",
          "name": "metadataURI",
          "type": "string"
        }
      ],
      "name": "createMarket",
      "outputs": [
        {
          "internalType": "bytes32",
          "name": "marketId",
          "type": "bytes32"
        }
      ],
      "stateMutability": "nonpayable",
      "type": "function"
    },
    {
      "inputs": [
        {
          "internalType": "bytes32",
          "name": "marketId",
          "type": "bytes32"
        },
        {
          "internalType": "uint256",
          "name": "amount",
          "type": "uint256"
        }
      ],
      "name": "depositCollateral",
      "outputs": [],
      "stateMutability": "nonpayable",
      "type": "function"
    },
    {
      "inputs": [
        {
          "internalType": "bytes32",
          "name": "marketId",
          "type": "bytes32"
        }
      ],
      "name": "finalizeMarket",
      "outputs": [],
      "stateMutability": "nonpayable",
      "type": "function"
    },
    {
      "inputs": [
        {
          "internalType": "bytes32",
          "name": "marketId",
          "type": "bytes32"
        }
      ],
      "name": "getMarketMetadataURI",
      "outputs": [
        {
          "internalType": "string",
          "name": "",
          "type": "string"
        }
      ],
      "stateMutability": "view",
      "type": "function"
    },
    {
      "inputs": [
        {
          "internalType": "bytes32",
          "name": "marketId",
          "type": "bytes32"
        }
      ],
      "name": "getMarketParams",
      "outputs": [
        {
          "components": [
            {
              "internalType": "address",
              "name": "collateralToken",
              "type": "address"
            },
            {
              "internalType": "uint64",
              "name": "marketDeadline",
              "type": "uint64"
            },
            {
              "internalType": "uint8",
              "name": "configFlags",
              "type": "uint8"
            },
            {
              "internalType": "uint8",
              "name": "numOutcomes",
              "type": "uint8"
            },
            {
              "internalType": "address",
              "name": "oracle",
              "type": "address"
            },
            {
              "internalType": "bytes32",
              "name": "questionId",
              "type": "bytes32"
            }
          ],
          "internalType": "struct MarketCore.MarketParams",
          "name": "",
          "type": "tuple"
        }
      ],
      "stateMutability": "view",
      "type": "function"
    },
    {
      "inputs": [
        {
          "internalType": "bytes32",
          "name": "marketId",
          "type": "bytes32"
        }
      ],
      "name": "getMarketState",
      "outputs": [
        {
          "internalType": "enum MarketCore.MarketStatus",
          "name": "status",
          "type": "uint8"
        },
        {
          "internalType": "uint8",
          "name": "winningOutcomeIndex",
          "type": "uint8"
        },
        {
          "internalType": "bool",
          "name": "isInvalid",
          "type": "bool"
        }
      ],
      "stateMutability": "view",
      "type": "function"
    },
    {
      "inputs": [
        {
          "internalType": "bytes32",
          "name": "marketId",
          "type": "bytes32"
        }
      ],
      "name": "isMarketOpen",
      "outputs": [
        {
          "internalType": "bool",
          "name": "",
          "type": "bool"
        }
      ],
      "stateMutability": "view",
      "type": "function"
    },
    {
      "inputs": [
        {
          "internalType": "bytes32",
          "name": "",
          "type": "bytes32"
        }
      ],
      "name": "marketCollateralBalance",
      "outputs": [
        {
          "internalType": "uint256",
          "name": "",
          "type": "uint256"
        }
      ],
      "stateMutability": "view",
      "type": "function"
    },
    {
      "inputs": [
        {
          "internalType": "bytes32",
          "name": "",
          "type": "bytes32"
        }
      ],
      "name": "marketExists",
      "outputs": [
        {
          "internalType": "bool",
          "name": "",
          "type": "bool"
        }
      ],
      "stateMutability": "view",
      "type": "function"
    },
    {
      "inputs": [],
      "name": "outcomeToken1155",
      "outputs": [
        {
          "internalType": "address",
          "name": "",
          "type": "address"
        }
      ],
      "stateMutability": "view",
      "type": "function"
    },
    {
      "inputs": [
        {
          "internalType": "bytes32",
          "name": "marketId",
          "type": "bytes32"
        },
        {
          "internalType": "uint8",
          "name": "outcomeIndex",
          "type": "uint8"
        },
        {
          "internalType": "uint256",
          "name": "amount",
          "type": "uint256"
        }
      ],
      "name": "redeemWinnings",
      "outputs": [],
      "stateMutability": "nonpayable",
      "type": "function"
    },
    {
      "inputs": [
        {
          "internalType": "bytes32",
          "name": "marketId",
          "type": "bytes32"
        }
      ],
      "name": "requestResolution",
      "outputs": [],
      "stateMutability": "nonpayable",
      "type": "function"
    }
  ],
  "bytecode": "0x60a060405234801561001057600080fd5b506040516116f43803806116f483398101604081905261002f91610045565b60016000556001600160a01b0316608052610075565b60006020828403121561005757600080fd5b81516001600160a01b038116811461006e57600080fd5b9392505050565b60805161165d610097600039600081816102760152610d88015261165d6000f3fe608060405234801561001057600080fd5b506004361061010b5760003560e01c80637428d1d9116100a2578063d8d0398911610071578063d8d03989146102b0578063dc73d164146102d3578063dea9b464146102db578063e4e2e814146102ee578063fcf8641c1461031057600080fd5b80637428d1d91461012f578063956b8b1e1461023e578063bcca620214610251578063bfa1efae1461027157600080fd5b80635717192a116100de5780635717192a146101d5578063626cb257146101ea5780636aa02cbd146101fd5780636e10b8cf1461021d57600080fd5b80633578738d146101105780633d82642d1461012f57806348df3192146101375780634d0ee9f31461015a575b600080fd5b610118600181565b60405160ff90911681526020015b60405180910390f35b610118600281565b61014a610145366004610fbf565b610323565b6040519015158152602001610126565b61016d610168366004610fbf565b61038e565b6040516101269190600060c08201905060018060a01b0380845116835267ffffffffffffffff602085015116602084015260ff604085015116604084015260ff60608501511660608401528060808501511660808401525060a083015160a083015292915050565b6101e86101e3366004610fbf565b610468565b005b6101e86101f8366004610fbf565b6105fb565b61021061020b366004610fbf565b6107a9565b6040516101269190610fd8565b61023061022b366004611038565b61087c565b604051908152602001610126565b61023061024c366004611068565b61088d565b61023061025f366004610fbf565b60036020526000908152604090205481565b6102987f000000000000000000000000000000000000000000000000000000000000000081565b6040516001600160a01b039091168152602001610126565b61014a6102be366004610fbf565b60026020526000908152604090205460ff1681565b610118600881565b6101e86102e93660046110f3565b610a93565b6103016102fc366004610fbf565b610bb1565b6040516101269392919061112b565b6101e861031e366004611166565b610c13565b60008181526002602052604081205460ff1661034157506000919050565b600082815260016020526040812090600382015460ff16600281111561036957610369611115565b14801561038757508054600160a01b900467ffffffffffffffff1642105b9392505050565b6040805160c081018252600080825260208201819052918101829052606081018290526080810182905260a081019190915260008281526002602052604090205460ff166103ef576040516307db1be560e41b815260040160405180910390fd5b50600090815260016020818152604092839020835160c08101855281546001600160a01b03808216835267ffffffffffffffff600160a01b8304169483019490945260ff600160e01b8204811696830196909652600160e81b90049094166060850152918201541660808301526002015460a082015290565b60008181526002602052604090205460ff16610497576040516307db1be560e41b815260040160405180910390fd5b60008181526001602052604090206002600382015460ff1660028111156104c0576104c0611115565b036104de5760405163aa43cb2d60e01b815260040160405180910390fd5b8054819067ffffffffffffffff600160a01b8204164210801591600160e01b90046001161515908261050e575080155b1561052c576040516302eb354360e41b815260040160405180910390fd5b6000600385015460ff16600281111561054757610547611115565b0361055c5760038401805460ff191660011790555b60018301546002840154604051632b8b8c9560e11b81526001600160a01b0390921691635717192a916105959160040190815260200190565b600060405180830381600087803b1580156105af57600080fd5b505af11580156105c3573d6000803e3d6000fd5b50506040513392508791507f08c89d0d5740ed2e9d381047a0340c24d467880a575d79ffe2e4ab0e925fddb790600090a35050505050565b60008181526002602052604090205460ff1661062a576040516307db1be560e41b815260040160405180910390fd5b60008181526001602052604090206002600382015460ff16600281111561065357610653611115565b036106715760405163aa43cb2d60e01b815260040160405180910390fd5b60018101546002820154604051632e8d1dc160e11b81528392600092839283926001600160a01b031691635d1a3b82916106b2919060040190815260200190565b608060405180830381865afa1580156106cf573d6000803e3d6000fd5b505050506040513d601f19601f820116820180604052508101906106f391906111c9565b50925092509250806107185760405163405bded960e11b815260040160405180910390fd5b60038501805462ffff001916620100008415150261ff0019161761010060ff861602178082556002919060ff19166001830217905550600385015460408051610100830460ff9081168252620100009093049092161515602083015287917f5193265feff5e93bed4449641c07e6839741a44e90298b838badadaa6b24f798910160405180910390a2505050505050565b60008181526002602052604090205460609060ff166107db576040516307db1be560e41b815260040160405180910390fd5b600082815260016020526040902060040180546107f790611221565b80601f016020809104026020016040519081016040528092919081815260200182805461082390611221565b80156108705780601f1061084557610100808354040283529160200191610870565b820191906000526020600020905b81548152906001019060200180831161085357829003601f168201915b50505050509050919050565b60ff8116600883901b175b92915050565b60008061089d6020860186611270565b6001600160a01b0316036108c457604051633a001e0560e11b815260040160405180910390fd5b60006108d660a0860160808701611270565b6001600160a01b0316036108fd57604051639589a27d60e01b815260040160405180910390fd5b600261090f608086016060870161128d565b60ff1610806109305750600861092b608086016060870161128d565b60ff16115b1561094e5760405163566f431760e11b815260040160405180910390fd5b8360405160200161095f91906112aa565b60408051601f1981840301815291815281516020928301206000818152600290935291205490915060ff16156109a857604051630313b28560e01b815260040160405180910390fd5b6000818152600260209081526040808320805460ff19166001908117909155909152902084816109d8828261136b565b505060038101805462ffffff19169055600481016109f78486836114a9565b50610a0860a0860160808701611270565b6001600160a01b0316610a1e6020870187611270565b6001600160a01b0316837f297f8f9a8797d1e9d78321a8b63ebbd5afcd5d9100bbbc9ddddc9ed6c7bf2a7160a0890135610a5e60408b0160208c0161156a565b610a6e60808c0160608d0161128d565b8a8a33604051610a8396959493929190611587565b60405180910390a4509392505050565b610a9b610e82565b60008281526002602052604090205460ff16610aca576040516307db1be560e41b815260040160405180910390fd5b80600003610aeb57604051631f2a200560e01b815260040160405180910390fd5b600082815260016020526040812090600382015460ff166002811115610b1357610b13611115565b14610b315760405163300b4e3360e21b815260040160405180910390fd5b8054610b48906001600160a01b0316333085610eac565b60008381526003602052604081208054849290610b66908490611601565b9091555050604051828152339084907f1eaa3c7e4504a558b82af8aad514e144b09bc2eca413ceef6d6ba6260f772f169060200160405180910390a350610bad6001600055565b5050565b6000818152600260205260408120548190819060ff16610be4576040516307db1be560e41b815260040160405180910390fd5b50505060009081526001602052604090206003015460ff80821692610100830482169262010000900490911690565b610c1b610e82565b80600003610c3c57604051631f2a200560e01b815260040160405180910390fd5b60008381526002602052604090205460ff16610c6b576040516307db1be560e41b815260040160405180910390fd5b60008381526001602052604090206002600382015460ff166002811115610c9457610c94611115565b14610cb25760405163174b639360e11b815260040160405180910390fd5b6003810154819062010000900460ff1615610cf8578054600160e01b9004600216600003610cf35760405163e39e952960e01b815260040160405180910390fd5b610d27565b600382015460ff8581166101009092041614610d275760405163047bb04160e01b815260040160405180910390fd5b805460ff600160e81b909104811690851610610d565760405163bdc9571560e01b815260040160405180910390fd5b6000600886901b60ff861617604051637a94c56560e11b815233600482015260248101829052604481018690529091507f00000000000000000000000000000000000000000000000000000000000000006001600160a01b03169063f5298aca90606401600060405180830381600087803b158015610dd457600080fd5b505af1158015610de8573d6000803e3d6000fd5b50505060008781526003602052604081208054879350839290610e0c908490611614565b90915550508254610e27906001600160a01b03163383610f19565b6040805160ff8816815260208101879052908101829052339088907f90f76ea894fd28e4b71f45335c222a4edc567b49d8c092fccf114b366a92d9209060600160405180910390a350505050610e7d6001600055565b505050565b600260005403610ea557604051633ee5aeb560e01b815260040160405180910390fd5b6002600055565b6040516001600160a01b038481166024830152838116604483015260648201839052610f139186918216906323b872dd906084015b604051602081830303815290604052915060e01b6020820180516001600160e01b038381831617835250505050610f4a565b50505050565b6040516001600160a01b03838116602483015260448201839052610e7d91859182169063a9059cbb90606401610ee1565b600080602060008451602086016000885af180610f6d576040513d6000823e3d81fd5b50506000513d91508115610f85578060011415610f92565b6001600160a01b0384163b155b15610f1357604051635274afe760e01b81526001600160a01b038516600482015260240160405180910390fd5b600060208284031215610fd157600080fd5b5035919050565b600060208083528351808285015260005b8181101561100557858101830151858201604001528201610fe9565b506000604082860101526040601f19601f8301168501019250505092915050565b60ff8116811461103557600080fd5b50565b6000806040838503121561104b57600080fd5b82359150602083013561105d81611026565b809150509250929050565b600080600083850360e081121561107e57600080fd5b60c081121561108c57600080fd5b5083925060c084013567ffffffffffffffff808211156110ab57600080fd5b818601915086601f8301126110bf57600080fd5b8135818111156110ce57600080fd5b8760208285010111156110e057600080fd5b6020830194508093505050509250925092565b6000806040838503121561110657600080fd5b50508035926020909101359150565b634e487b7160e01b600052602160045260246000fd5b606081016003851061114d57634e487b7160e01b600052602160045260246000fd5b93815260ff929092166020830152151560409091015290565b60008060006060848603121561117b57600080fd5b83359250602084013561118d81611026565b929592945050506040919091013590565b805180151581146111ae57600080fd5b919050565b67ffffffffffffffff8116811461103557600080fd5b600080600080608085870312156111df57600080fd5b84516111ea81611026565b93506111f86020860161119e565b92506112066040860161119e565b91506060850151611216816111b3565b939692955090935050565b600181811c9082168061123557607f821691505b60208210810361125557634e487b7160e01b600052602260045260246000fd5b50919050565b6001600160a01b038116811461103557600080fd5b60006020828403121561128257600080fd5b81356103878161125b565b60006020828403121561129f57600080fd5b813561038781611026565b60c0810182356112b98161125b565b6001600160a01b0390811683526020840135906112d5826111b3565b67ffffffffffffffff82166020850152604085013591506112f582611026565b60ff821660408501526060850135915061130e82611026565b60ff82166060850152608085013591506113278261125b565b16608083015260a092830135929091019190915290565b600081356108878161125b565b80546001600160a01b0319166001600160a01b0392909216919091179055565b81356113768161125b565b611380818361134b565b50602082013561138f816111b3565b815467ffffffffffffffff60a01b19811660a09290921b67ffffffffffffffff60a01b16918217835560408401356113c681611026565b60ff60e01b60e09190911b1668ffffffffffffffffff60a01b19821683178117845560608501356113f681611026565b69ffffffffffffffffffff60a01b19929092169092179190911760e89190911b60ff60e81b1617815561143761142e6080840161133e565b6001830161134b565b60a082013560028201555050565b634e487b7160e01b600052604160045260246000fd5b601f821115610e7d57600081815260208120601f850160051c810160208610156114825750805b601f850160051c820191505b818110156114a15782815560010161148e565b505050505050565b67ffffffffffffffff8311156114c1576114c1611445565b6114d5836114cf8354611221565b8361145b565b6000601f84116001811461150957600085156114f15750838201355b600019600387901b1c1916600186901b178355611563565b600083815260209020601f19861690835b8281101561153a578685013582556020948501946001909201910161151a565b50868210156115575760001960f88860031b161c19848701351681555b505060018560011b0183555b5050505050565b60006020828403121561157c57600080fd5b8135610387816111b3565b86815267ffffffffffffffff8616602082015260ff8516604082015260a060608201528260a0820152828460c0830137600081840160c0908101919091526001600160a01b03929092166080820152601f909201601f191690910101949350505050565b634e487b7160e01b600052601160045260246000fd5b80820180821115610887576108876115eb565b81810381811115610887576108876115eb56fea2646970667358221220652d41485e5628ec423d644fe292ab6b779a71d5baeb40bc90d37c9a18a6fda064736f6c63430008140033",
  "linkReferences": {},
  "deployedLinkReferences": {}
}