{
  "_format": "hh-sol-artifact-1",
  "contractName": "OutcomeToken1155",
  "sourceName": "contracts/OutcomeToken1155.sol",
  "abi": [
    {
      "inputs": [
        {
          "internalType": "address[]",
          "name": "minters",
          "type": "address[]"
        },
        {
          "internalType": "string",
          "name": "uri_",
          "type": "string"
        }
      ],
      "stateMutability": "nonpayable",
      "type": "constructor"
    },
    {
      "inputs": [],
      "name": "ArrayLengthMismatch",
      "type": "error"
    },
    {
      "inputs": [],
      "name": "ERC1155ReceiverRejected",
      "type": "error"
    },
    {
      "inputs": [],
      "name": "InsufficientBalance",
      "type": "error"
    },
    {
      "inputs": [],
      "name": "NotAuthorizedMinter",
      "type": "error"
    },
    {
      "inputs": [],
      "name": "NotERC1155Receiver",
      "type": "error"
    },
    {
      "inputs": [],
      "name": "NotOwnerOrApproved",
      "type": "error"
    },
    {
      "inputs": [],
      "name": "SelfApproval",
      "type": "error"
    },
    {
      "inputs": [],
      "name": "TransferToZeroAddress",
      "type": "error"
    },
    {
      "anonymous": false,
      "inputs": [
        {
          "indexed": true,
          "internalType": "address",
          "name": "account",
          "type": "address"
        },
        {
          "indexed": true,
          "internalType": "address",
          "name": "operator",
          "type": "address"
        },
        {
          "indexed": false,
          "internalType": "bool",
          "name": "approved",
          "type": "bool"
        }
      ],
      "name": "ApprovalForAll",
      "type": "event"
    },
    {
      "anonymous": false,
      "inputs": [
        {
          "indexed": true,
          "internalType": "address",
          "name": "operator",
          "type": "address"
        },
        {
          "indexed": true,
          "internalType": "address",
          "name": "from",
          "type": "address"
        },
        {
          "indexed": true,
          "internalType": "address",
          "name": "to",
          "type": "address"
        },
        {
          "indexed": false,
          "internalType": "uint256[]",
          "name": "ids",
          "type": "uint256[]"
        },
        {
          "indexed": false,
          "internalType": "uint256[]",
          "name": "values",
          "type": "uint256[]"
        }
      ],
      "name": "TransferBatch",
      "type": "event"
    },
    {
      "anonymous": false,
      "inputs": [
        {
          "indexed": true,
          "internalType": "address",
          "name": "operator",
          "type": "address"
        },
        {
          "indexed": true,
          "internalType": "address",
          "name": "from",
          "type": "address"
        },
        {
          "indexed": true,
          "internalType": "address",
          "name": "to",
          "type": "address"
        },
        {
          "indexed": false,
          "internalType": "uint256",
          "name": "id",
          "type": "uint256"
        },
        {
          "indexed": false,
          "internalType": "uint256",
          "name": "value",
          "type": "uint256"
        }
      ],
      "name": "TransferSingle",
      "type": "event"
    },
    {
      "anonymous": false,
      "inputs": [
        {
          "indexed": false,
          "internalType": "string",
          "name": "value",
          "type": "string"
        },
        {
          "indexed": true,
          "internalType": "uint256",
          "name": "id",
          "type": "uint256"
        }
      ],
      "name": "URI",
      "type": "event"
    },
    {
      "inputs": [
        {
          "internalType": "address",
          "name": "account",
          "type": "address"
        },
        {
          "internalType": "uint256",
          "name": "id",
          "type": "uint256"
        }
      ],
      "name": "balanceOf",
      "outputs": [
        {
          "internalType": "uint256",
          "name": "",
          "type": "uint256"
        }
      ],
      "stateMutability": "view",
      "type": "function"
    },
    {
      "inputs": [
        {
          "internalType": "address[]",
          "name": "accounts",
          "type": "address[]"
        },
        {
          "internalType": "uint256[]",
          "name": "ids",
          "type": "uint256[]"
        }
      ],
      "name": "balanceOfBatch",
      "outputs": [
        {
          "internalType": "uint256[]",
          "name": "",
          "type": "uint256[]"
        }
      ],
      "stateMutability": "view",
      "type": "function"
    },
    {
      "inputs": [
        {
          "internalType": "address",
          "name": "from",
          "type": "address"
        },
        {
          "internalType": "uint256",
          "name": "id",
          "type": "uint256"
        },
        {
          "internalType": "uint256",
          "name": "amount",
          "type": "uint256"
        }
      ],
      "name": "burn",
      "outputs": [],
      "stateMutability": "nonpayable",
      "type": "function"
    },
    {
      "inputs": [
        {
          "internalType": "address",
          "name": "from",
          "type": "address"
        },
        {
          "internalType": "uint256[]",
          "name": "ids",
          "type": "uint256[]"
        },
        {
          "internalType": "uint256[]",
          "name": "amounts",
          "type": "uint256[]"
        }
      ],
      "name": "burnBatch",
      "outputs": [],
      "stateMutability": "nonpayable",
      "type": "function"
    },
    {
      "inputs": [
        {
          "internalType": "bytes32",
          "name": "marketId",
          "type": "bytes32"
        },
        {
          "internalType": "uint8",
          "name": "outcomeIndex",
          "type": "uint8"
        }
      ],
      "name": "computeOutcomeTokenId",
      "outputs": [
        {
          "internalType": "uint256",
          "name": "",
          "type": "uint256"
        }
      ],
      "stateMutability": "pure",
      "type": "function"
    },
    {
      "inputs": [
        {
          "internalType": "address",
          "name": "account",
          "type": "address"
        },
        {
          "internalType": "address",
          "name": "operator",
          "type": "address"
        }
      ],
      "name": "isApprovedForAll",
      "outputs": [
        {
          "internalType": "bool",
          "name": "",
          "type": "bool"
        }
      ],
      "stateMutability": "view",
      "type": "function"
    },
    {
      "inputs": [
        {
          "internalType": "address",
          "name": "",
          "type": "address"
        }
      ],
      "name": "isMinter",
      "outputs": [
        {
          "internalType": "bool",
          "name": "",
          "type": "bool"
        }
      ],
      "stateMutability": "view",
      "type": "function"
    },
    {
      "inputs": [
        {
          "internalType": "address",
          "name": "to",
          "type": "address"
        },
        {
          "internalType": "uint256",
          "name": "id",
          "type": "uint256"
        },
        {
          "internalType": "uint256",
          "name": "amount",
          "type": "uint256"
        },
        {
          "internalType": "bytes",
          "name": "data",
          "type": "bytes"
        }
      ],
      "name": "mint",
      "outputs": [],
      "stateMutability": "nonpayable",
      "type": "function"
    },
    {
      "inputs": [
        {
          "internalType": "address",
          "name": "to",
          "type": "address"
        },
        {
          "internalType": "uint256[]",
          "name": "ids",
          "type": "uint256[]"
        },
        {
          "internalType": "uint256[]",
          "name": "amounts",
          "type": "uint256[]"
        },
        {
          "internalType": "bytes",
          "name": "data",
          "type": "bytes"
        }
      ],
      "name": "mintBatch",
      "outputs": [],
      "stateMutability": "nonpayable",
      "type": "function"
    },
    {
      "inputs": [
        {
          "internalType": "address",
          "name": "from",
          "type": "address"
        },
        {
          "internalType": "address",
          "name": "to",
          "type": "address"
        },
        {
          "internalType": "uint256[]",
          "name": "ids",
          "type": "uint256[]"
        },
        {
          "internalType": "uint256[]",
          "name": "amounts",
          "type": "uint256[]"
        },
        {
          "internalType": "bytes",
          "name": "data",
          "type": "bytes"
        }
      ],
      "name": "safeBatchTransferFrom",
      "outputs": [],
      "stateMutability": "nonpayable",
      "type": "function"
    },
    {
      "inputs": [
        {
          "internalType": "address",
          "name": "from",
          "type": "address"
        },
        {
          "internalType": "address",
          "name": "to",
          "type": "address"
        },
        {
          "internalType": "uint256",
          "name": "id",
          "type": "uint256"
        },
        {
          "internalType": "uint256",
          "name": "amount",
          "type": "uint256"
        },
        {
          "internalType": "bytes",
          "name": "data",
          "type": "bytes"
        }
      ],
      "name": "safeTransferFrom",
      "outputs": [],
      "stateMutability": "nonpayable",
      "type": "function"
    },
    {
      "inputs": [
        {
          "internalType": "address",
          "name": "operator",
          "type": "address"
        },
        {
          "internalType": "bool",
          "name": "approved",
          "type": "bool"
        }
      ],
      "name": "setApprovalForAll",
      "outputs": [],
      "stateMutability": "nonpayable",
      "type": "function"
    },
    {
      "inputs": [
        {
          "internalType": "bytes4",
          "name": "interfaceId",
          "type": "bytes4"
        }
      ],
      "name": "supportsInterface",
      "outputs": [
        {
          "internalType": "bool",
          "name": "",
          "type": "bool"
        }
      ],
      "stateMutability": "pure",
      "type": "function"
    },
    {
      "inputs": [
        {
          "internalType": "uint256",
          "name": "",
          "type": "uint256"
        }
      ],
      "name": "uri",
      "outputs": [
        {
          "internalType": "string",
          "name": "",
          "type": "string"
        }
      ],
      "stateMutability": "view",
      "type": "function"
    }
  ],
  "bytecode": "0x60806040523480156200001157600080fd5b5060405162001c2338038062001c23833981016040819052620000349162000187565b600362000042828262000308565b50815160005b81811015620000a7576001600260008684815181106200006c576200006c620003d4565b6020908102919091018101516001600160a01b03168252810191909152604001600020805460ff191691151591909117905560010162000048565b50505050620003ea565b634e487b7160e01b600052604160045260246000fd5b604051601f8201601f191681016001600160401b0381118282101715620000f257620000f2620000b1565b604052919050565b600082601f8301126200010c57600080fd5b81516001600160401b03811115620001285762000128620000b1565b60206200013e601f8301601f19168201620000c7565b82815285828487010111156200015357600080fd5b60005b838110156200017357858101830151828201840152820162000156565b506000928101909101919091529392505050565b600080604083850312156200019b57600080fd5b82516001600160401b0380821115620001b357600080fd5b818501915085601f830112620001c857600080fd5b8151602082821115620001df57620001df620000b1565b8160051b620001f0828201620000c7565b928352848101820192828101908a8511156200020b57600080fd5b958301955b848710156200024557865192506001600160a01b0383168314620002345760008081fd5b828252958301959083019062000210565b92890151929750919450505050808211156200026057600080fd5b506200026f85828601620000fa565b9150509250929050565b600181811c908216806200028e57607f821691505b602082108103620002af57634e487b7160e01b600052602260045260246000fd5b50919050565b601f8211156200030357600081815260208120601f850160051c81016020861015620002de5750805b601f850160051c820191505b81811015620002ff57828155600101620002ea565b5050505b505050565b81516001600160401b03811115620003245762000324620000b1565b6200033c8162000335845462000279565b84620002b5565b602080601f8311600181146200037457600084156200035b5750858301515b600019600386901b1c1916600185901b178555620002ff565b600085815260208120601f198616915b82811015620003a55788860151825594840194600190910190840162000384565b5085821015620003c45787850151600019600388901b60f8161c191681555b5050505050600190811b01905550565b634e487b7160e01b600052603260045260246000fd5b61182980620003fa6000396000f3fe608060405234801561001057600080fd5b50600436106100e95760003560e01c80636e10b8cf1161008c578063aa271e1a11610066578063aa271e1a146101eb578063e985e9c51461020e578063f242432a1461024a578063f5298aca1461025d57600080fd5b80636e10b8cf146101b2578063731133e9146101c5578063a22cb465146101d857600080fd5b80631f7fdffa116100c85780631f7fdffa146101575780632eb2c2d61461016c5780634e1273f41461017f5780636b20c4541461019f57600080fd5b8062fdd58e146100ee57806301ffc9a7146101145780630e89341c14610137575b600080fd5b6101016100fc366004610f9f565b610270565b6040519081526020015b60405180910390f35b610127610122366004610fe2565b610298565b604051901515815260200161010b565b61014a610145366004610fff565b6102e9565b60405161010b9190611018565b61016a6101653660046110f4565b61037d565b005b61016a61017a36600461119f565b6104fb565b61019261018d36600461125a565b610665565b60405161010b91906112c6565b61016a6101ad3660046112fe565b61077f565b6101016101c036600461137f565b61095d565b61016a6101d33660046113b5565b610971565b61016a6101e636600461140c565b610a5d565b6101276101f936600461143d565b60026020526000908152604090205460ff1681565b61012761021c366004611458565b6001600160a01b03918216600090815260016020908152604080832093909416825291909152205460ff1690565b61016a61025836600461148b565b610af2565b61016a61026b366004611503565b610be2565b6000818152602081815260408083206001600160a01b03861684529091529020545b92915050565b60006001600160e01b03198216636cdb3d1360e11b14806102c957506001600160e01b031982166303a24d0760e21b145b8061029257506001600160e01b031982166301ffc9a760e01b1492915050565b6060600380546102f890611536565b80601f016020809104026020016040519081016040528092919081815260200182805461032490611536565b80156103715780601f1061034657610100808354040283529160200191610371565b820191906000526020600020905b81548152906001019060200180831161035457829003601f168201915b50505050509050919050565b3360009081526002602052604090205460ff166103ad5760405163019a5d1d60e71b815260040160405180910390fd5b6001600160a01b0387166103d457604051633a954ecd60e21b815260040160405180910390fd5b8483146103f45760405163512509d360e11b815260040160405180910390fd5b8460005b818110156104825785858281811061041257610412611570565b905060200201356000808a8a8581811061042e5761042e611570565b90506020020135815260200190815260200160002060008b6001600160a01b03166001600160a01b0316815260200190815260200160002060008282546104759190611586565b90915550506001016103f8565b50876001600160a01b031660006001600160a01b0316336001600160a01b03167f4a39dc06d4c0dbc64b70af90fd698a233a518aa5d07e595d983b8c0526c8f7fb8a8a8a8a6040516104d794939291906115d9565b60405180910390a46104f13360008a8a8a8a8a8a8a610d15565b5050505050505050565b6001600160a01b03871661052257604051633a954ecd60e21b815260040160405180910390fd5b8483146105425760405163512509d360e11b815260040160405180910390fd5b6001600160a01b038816331480159061057f57506001600160a01b038816600090815260016020908152604080832033845290915290205460ff16155b1561059d57604051636d8a29e760e11b815260040160405180910390fd5b8460005b818110156105ed576105e58a8a8a8a858181106105c0576105c0611570565b905060200201358989868181106105d9576105d9611570565b90506020020135610e31565b6001016105a1565b50876001600160a01b0316896001600160a01b0316336001600160a01b03167f4a39dc06d4c0dbc64b70af90fd698a233a518aa5d07e595d983b8c0526c8f7fb8a8a8a8a60405161064194939291906115d9565b60405180910390a461065a338a8a8a8a8a8a8a8a610d15565b505050505050505050565b60608382146106875760405163512509d360e11b815260040160405180910390fd5b60008467ffffffffffffffff8111156106a2576106a261160b565b6040519080825280602002602001820160405280156106cb578160200160208202803683370190505b5090508460005b81811015610773576000808787848181106106ef576106ef611570565b905060200201358152602001908152602001600020600089898481811061071857610718611570565b905060200201602081019061072d919061143d565b6001600160a01b03166001600160a01b031681526020019081526020016000205483828151811061076057610760611570565b60209081029190910101526001016106d2565b50909695505050505050565b3360009081526002602052604090205460ff166107af5760405163019a5d1d60e71b815260040160405180910390fd5b8281146107cf5760405163512509d360e11b815260040160405180910390fd5b6001600160a01b038516331480159061080c57506001600160a01b038516600090815260016020908152604080832033845290915290205460ff16155b1561082a57604051636d8a29e760e11b815260040160405180910390fd5b8260005b818110156108f857600086868381811061084a5761084a611570565b905060200201359050600085858481811061086757610867611570565b905060200201359050600080600084815260200190815260200160002060008b6001600160a01b03166001600160a01b03168152602001908152602001600020549050818110156108cb57604051631e9acf1760e31b815260040160405180910390fd5b6000928352602083815260408085206001600160a01b038d1686529091529092209103905560010161082e565b5060006001600160a01b0316866001600160a01b0316336001600160a01b03167f4a39dc06d4c0dbc64b70af90fd698a233a518aa5d07e595d983b8c0526c8f7fb8888888860405161094d94939291906115d9565b60405180910390a4505050505050565b6000600883901b60ff8316175b9392505050565b3360009081526002602052604090205460ff166109a15760405163019a5d1d60e71b815260040160405180910390fd5b6001600160a01b0385166109c857604051633a954ecd60e21b815260040160405180910390fd5b6000848152602081815260408083206001600160a01b0389168452909152812080548592906109f8908490611586565b909155505060408051858152602081018590526001600160a01b0387169160009133917fc3d58168c5ae7397731d063d5bbf3d657854427343f4c083240f7aacaa2d0f62910160405180910390a4610a563360008787878787610ebc565b5050505050565b336001600160a01b03831603610a8657604051633cf0df2360e01b815260040160405180910390fd5b3360008181526001602090815260408083206001600160a01b03871680855290835292819020805460ff191686151590811790915590519081529192917f17307eab39ab6107e8899845ad3d59bd9653f200f220920489ca2b5937696c31910160405180910390a35050565b6001600160a01b038516610b1957604051633a954ecd60e21b815260040160405180910390fd5b6001600160a01b0386163314801590610b5657506001600160a01b038616600090815260016020908152604080832033845290915290205460ff16155b15610b7457604051636d8a29e760e11b815260040160405180910390fd5b610b8086868686610e31565b60408051858152602081018590526001600160a01b03808816929089169133917fc3d58168c5ae7397731d063d5bbf3d657854427343f4c083240f7aacaa2d0f62910160405180910390a4610bda33878787878787610ebc565b505050505050565b3360009081526002602052604090205460ff16610c125760405163019a5d1d60e71b815260040160405180910390fd5b6001600160a01b0383163314801590610c4f57506001600160a01b038316600090815260016020908152604080832033845290915290205460ff16155b15610c6d57604051636d8a29e760e11b815260040160405180910390fd5b6000828152602081815260408083206001600160a01b038716845290915290205481811015610caf57604051631e9acf1760e31b815260040160405180910390fd5b6000838152602081815260408083206001600160a01b038816808552908352818420868603905581518781529283018690529133917fc3d58168c5ae7397731d063d5bbf3d657854427343f4c083240f7aacaa2d0f62910160405180910390a450505050565b6001600160a01b0387163b1561065a5760405163bc197c8160e01b81526001600160a01b0388169063bc197c8190610d5f908c908c908b908b908b908b908b908b9060040161164a565b6020604051808303816000875af1925050508015610d9a575060408051601f3d908101601f19168201909252610d97918101906116ae565b60015b610df457610da66116cb565b806308c379a003610dda5750610dba611722565b80610dc157505b6040516360a54e3360e11b815260040160405180910390fd5b506040516360a54e3360e11b815260040160405180910390fd5b6001600160e01b0319811663bc197c8160e01b14610e255760405163086d127360e01b815260040160405180910390fd5b50505050505050505050565b6000828152602081815260408083206001600160a01b038816845290915290205481811015610e7357604051631e9acf1760e31b815260040160405180910390fd5b6000838152602081815260408083206001600160a01b03898116855292528083208585039055908616825281208054849290610eb0908490611586565b90915550505050505050565b6001600160a01b0385163b15610f7a5760405163f23a6e6160e01b81526001600160a01b0386169063f23a6e6190610f02908a908a9089908990899089906004016117ac565b6020604051808303816000875af1925050508015610f3d575060408051601f3d908101601f19168201909252610f3a918101906116ae565b60015b610f4957610da66116cb565b6001600160e01b0319811663f23a6e6160e01b146104f15760405163086d127360e01b815260040160405180910390fd5b50505050505050565b80356001600160a01b0381168114610f9a57600080fd5b919050565b60008060408385031215610fb257600080fd5b610fbb83610f83565b946020939093013593505050565b6001600160e01b031981168114610fdf57600080fd5b50565b600060208284031215610ff457600080fd5b813561096a81610fc9565b60006020828403121561101157600080fd5b5035919050565b600060208083528351808285015260005b8181101561104557858101830151858201604001528201611029565b506000604082860101526040601f19601f8301168501019250505092915050565b60008083601f84011261107857600080fd5b50813567ffffffffffffffff81111561109057600080fd5b6020830191508360208260051b85010111156110ab57600080fd5b9250929050565b60008083601f8401126110c457600080fd5b50813567ffffffffffffffff8111156110dc57600080fd5b6020830191508360208285010111156110ab57600080fd5b60008060008060008060006080888a03121561110f57600080fd5b61111888610f83565b9650602088013567ffffffffffffffff8082111561113557600080fd5b6111418b838c01611066565b909850965060408a013591508082111561115a57600080fd5b6111668b838c01611066565b909650945060608a013591508082111561117f57600080fd5b5061118c8a828b016110b2565b989b979a50959850939692959293505050565b60008060008060008060008060a0898b0312156111bb57600080fd5b6111c489610f83565b97506111d260208a01610f83565b9650604089013567ffffffffffffffff808211156111ef57600080fd5b6111fb8c838d01611066565b909850965060608b013591508082111561121457600080fd5b6112208c838d01611066565b909650945060808b013591508082111561123957600080fd5b506112468b828c016110b2565b999c989b5096995094979396929594505050565b6000806000806040858703121561127057600080fd5b843567ffffffffffffffff8082111561128857600080fd5b61129488838901611066565b909650945060208701359150808211156112ad57600080fd5b506112ba87828801611066565b95989497509550505050565b6020808252825182820181905260009190848201906040850190845b81811015610773578351835292840192918401916001016112e2565b60008060008060006060868803121561131657600080fd5b61131f86610f83565b9450602086013567ffffffffffffffff8082111561133c57600080fd5b61134889838a01611066565b9096509450604088013591508082111561136157600080fd5b5061136e88828901611066565b969995985093965092949392505050565b6000806040838503121561139257600080fd5b82359150602083013560ff811681146113aa57600080fd5b809150509250929050565b6000806000806000608086880312156113cd57600080fd5b6113d686610f83565b94506020860135935060408601359250606086013567ffffffffffffffff81111561140057600080fd5b61136e888289016110b2565b6000806040838503121561141f57600080fd5b61142883610f83565b9150602083013580151581146113aa57600080fd5b60006020828403121561144f57600080fd5b61096a82610f83565b6000806040838503121561146b57600080fd5b61147483610f83565b915061148260208401610f83565b90509250929050565b60008060008060008060a087890312156114a457600080fd5b6114ad87610f83565b95506114bb60208801610f83565b94506040870135935060608701359250608087013567ffffffffffffffff8111156114e557600080fd5b6114f189828a016110b2565b979a9699509497509295939492505050565b60008060006060848603121561151857600080fd5b61152184610f83565b95602085013595506040909401359392505050565b600181811c9082168061154a57607f821691505b60208210810361156a57634e487b7160e01b600052602260045260246000fd5b50919050565b634e487b7160e01b600052603260045260246000fd5b8082018082111561029257634e487b7160e01b600052601160045260246000fd5b81835260006001600160fb1b038311156115c057600080fd5b8260051b80836020870137939093016020019392505050565b6040815260006115ed6040830186886115a7565b82810360208401526116008185876115a7565b979650505050505050565b634e487b7160e01b600052604160045260246000fd5b81835281816020850137506000828201602090810191909152601f909101601f19169091010190565b6001600160a01b0389811682528816602082015260a060408201819052600090611677908301888a6115a7565b828103606084015261168a8187896115a7565b9050828103608084015261169f818587611621565b9b9a5050505050505050505050565b6000602082840312156116c057600080fd5b815161096a81610fc9565b600060033d11156116e45760046000803e5060005160e01c5b90565b601f8201601f1916810167ffffffffffffffff8111828210171561171b57634e487b7160e01b600052604160045260246000fd5b6040525050565b600060443d10156117305790565b6040516003193d81016004833e81513d67ffffffffffffffff816024840111818411171561176057505050505090565b82850191508151818111156117785750505050505090565b843d87010160208285010111156117925750505050505090565b6117a1602082860101876116e7565b509095945050505050565b6001600160a01b03878116825286166020820152604081018590526060810184905260a0608082018190526000906117e79083018486611621565b9897505050505050505056fea2646970667358221220bb03f3ed9c70e58db988004d6c4a1ad4d9b7b1f9d36de973d9adccb63b1895bb64736f6c63430008140033",
  "linkReferences": {},
  "deployedLinkReferences": {}
}