{
  "_format": "hh-sol-artifact-1",
  "contractName": "SimpleRouter",
  "sourceName": "contracts/SimpleRouter.sol",
  "abi": [
    {
      "inputs": [
        {
          "internalType": "address",
          "name": "_marketCore",
          "type": "address"
        },
        {
          "internalType": "address",
          "name": "_fpmmAMM",
          "type": "address"
        },
        {
          "internalType": "address",
          "name": "_outcomeToken1155",
          "type": "address"
        }
      ],
      "stateMutability": "nonpayable",
      "type": "constructor"
    },
    {
      "inputs": [],
      "name": "InvalidOutcomeIndex",
      "type": "error"
    },
    {
      "inputs": [],
      "name": "MarketNotResolved",
      "type": "error"
    },
    {
      "inputs": [],
      "name": "ReentrancyGuardReentrantCall",
      "type": "error"
    },
    {
      "inputs": [
        {
          "internalType": "address",
          "name": "token",
          "type": "address"
        }
      ],
      "name": "SafeERC20FailedOperation",
      "type": "error"
    },
    {
      "inputs": [],
      "name": "ZeroAddress",
      "type": "error"
    },
    {
      "inputs": [],
      "name": "ZeroAmount",
      "type": "error"
    },
    {
      "anonymous": false,
      "inputs": [
        {
          "indexed": true,
          "internalType": "bytes32",
          "name": "marketId",
          "type": "bytes32"
        },
        {
          "indexed": true,
          "internalType": "address",
          "name": "provider",
          "type": "address"
        },
        {
          "indexed": false,
          "internalType": "uint256",
          "name": "collateralAmount",
          "type": "uint256"
        },
        {
          "indexed": false,
          "internalType": "uint256",
          "name": "lpShares",
          "type": "uint256"
        }
      ],
      "name": "LiquidityProvided",
      "type": "event"
    },
    {
      "anonymous": false,
      "inputs": [
        {
          "indexed": true,
          "internalType": "bytes32",
          "name": "marketId",
          "type": "bytes32"
        },
        {
          "indexed": true,
          "internalType": "address",
          "name": "provider",
          "type": "address"
        },
        {
          "indexed": false,
          "internalType": "uint256",
          "name": "lpShares",
          "type": "uint256"
        },
        {
          "indexed": false,
          "internalType": "uint256",
          "name": "collateralOut",
          "type": "uint256"
        }
      ],
      "name": "LiquidityWithdrawn",
      "type": "event"
    },
    {
      "anonymous": false,
      "inputs": [
        {
          "indexed": true,
          "internalType": "bytes32",
          "name": "marketId",
          "type": "bytes32"
        },
        {
          "indexed": true,
          "internalType": "address",
          "name": "buyer",
          "type": "address"
        },
        {
          "indexed": false,
          "internalType": "uint8",
          "name": "outcomeIndex",
          "type": "uint8"
        },
        {
          "indexed": false,
          "internalType": "uint256",
          "name": "collateralIn",
          "type": "uint256"
        },
        {
          "indexed": false,
          "internalType": "uint256",
          "name": "tokensOut",
          "type": "uint256"
        }
      ],
      "name": "OutcomeBought",
      "type": "event"
    },
    {
      "anonymous": false,
      "inputs": [
        {
          "indexed": true,
          "internalType": "bytes32",
          "name": "marketId",
          "type": "bytes32"
        },
        {
          "indexed": true,
          "internalType": "address",
          "name": "seller",
          "type": "address"
        },
        {
          "indexed": false,
          "internalType": "uint8",
          "name": "outcomeIndex",
          "type": "uint8"
        },
        {
          "indexed": false,
          "internalType": "uint256",
          "name": "tokensIn",
          "type": "uint256"
        },
        {
          "indexed": false,
          "internalType": "uint256",
          "name": "collateralOut",
          "type": "uint256"
        }
      ],
      "name": "OutcomeSold",
      "type": "event"
    },
    {
      "anonymous": false,
      "inputs": [
        {
          "indexed": true,
          "internalType": "bytes32",
          "name": "marketId",
          "type": "bytes32"
        },
        {
          "indexed": true,
          "internalType": "address",
          "name": "user",
          "type": "address"
        },
        {
          "indexed": false,
          "internalType": "uint8",
          "name": "outcomeIndex",
          "type": "uint8"
        },
        {
          "indexed": false,
          "internalType": "uint256",
          "name": "amount",
          "type": "uint256"
        },
        {
          "indexed": false,
          "internalType": "uint256",
          "name": "collateralReceived",
          "type": "uint256"
        }
      ],
      "name": "WinningsRedeemed",
      "type": "event"
    },
    {
      "inputs": [
        {
          "internalType": "bytes32",
          "name": "marketId",
          "type": "bytes32"
        },
        {
          "internalType": "uint256",
          "name": "collateralAmount",
          "type": "uint256"
        },
        {
          "internalType": "uint256",
          "name": "minLpShares",
          "type": "uint256"
        }
      ],
      "name": "addLiquidity",
      "outputs": [
        {
          "internalType": "uint256",
          "name": "lpShares",
          "type": "uint256"
        }
      ],
      "stateMutability": "nonpayable",
      "type": "function"
    },
    {
      "inputs": [
        {
          "internalType": "bytes32",
          "name": "marketId",
          "type": "bytes32"
        },
        {
          "internalType": "uint8",
          "name": "outcomeIndex",
          "type": "uint8"
        },
        {
          "internalType": "uint256",
          "name": "collateralIn",
          "type": "uint256"
        },
        {
          "internalType": "uint256",
          "name": "minTokensOut",
          "type": "uint256"
        }
      ],
      "name": "buyOutcome",
      "outputs": [
        {
          "internalType": "uint256",
          "name": "tokensOut",
          "type": "uint256"
        }
      ],
      "stateMutability": "nonpayable",
      "type": "function"
    },
    {
      "inputs": [
        {
          "internalType": "bytes32",
          "name": "marketId",
          "type": "bytes32"
        },
        {
          "internalType": "uint8",
          "name": "outcomeIndex",
          "type": "uint8"
        },
        {
          "internalType": "uint256",
          "name": "collateralIn",
          "type": "uint256"
        }
      ],
      "name": "estimateBuy",
      "outputs": [
        {
          "internalType": "uint256",
          "name": "tokensOut",
          "type": "uint256"
        }
      ],
      "stateMutability": "view",
      "type": "function"
    },
    {
      "inputs": [
        {
          "internalType": "bytes32",
          "name": "marketId",
          "type": "bytes32"
        },
        {
          "internalType": "uint8",
          "name": "outcomeIndex",
          "type": "uint8"
        },
        {
          "internalType": "uint256",
          "name": "tokensIn",
          "type": "uint256"
        }
      ],
      "name": "estimateSell",
      "outputs": [
        {
          "internalType": "uint256",
          "name": "collateralOut",
          "type": "uint256"
        }
      ],
      "stateMutability": "view",
      "type": "function"
    },
    {
      "inputs": [],
      "name": "fpmmAMM",
      "outputs": [
        {
          "internalType": "address",
          "name": "",
          "type": "address"
        }
      ],
      "stateMutability": "view",
      "type": "function"
    },
    {
      "inputs": [
        {
          "internalType": "bytes32",
          "name": "marketId",
          "type": "bytes32"
        }
      ],
      "name": "getCollateralToken",
      "outputs": [
        {
          "internalType": "address",
          "name": "",
          "type": "address"
        }
      ],
      "stateMutability": "view",
      "type": "function"
    },
    {
      "inputs": [
        {
          "internalType": "bytes32",
          "name": "marketId",
          "type": "bytes32"
        }
      ],
      "name": "getMarketConfig",
      "outputs": [
        {
          "internalType": "address",
          "name": "collateralToken",
          "type": "address"
        },
        {
          "internalType": "uint8",
          "name": "numOutcomes",
          "type": "uint8"
        },
        {
          "internalType": "uint256",
          "name": "liquidityParameterB",
          "type": "uint256"
        }
      ],
      "stateMutability": "view",
      "type": "function"
    },
    {
      "inputs": [
        {
          "internalType": "bytes32",
          "name": "marketId",
          "type": "bytes32"
        }
      ],
      "name": "getMarketStatus",
      "outputs": [
        {
          "internalType": "enum IMarketCore.MarketStatus",
          "name": "status",
          "type": "uint8"
        },
        {
          "internalType": "uint8",
          "name": "winningOutcome",
          "type": "uint8"
        },
        {
          "internalType": "bool",
          "name": "isInvalid",
          "type": "bool"
        }
      ],
      "stateMutability": "view",
      "type": "function"
    },
    {
      "inputs": [
        {
          "internalType": "bytes32",
          "name": "marketId",
          "type": "bytes32"
        }
      ],
      "name": "getOutcomePrices",
      "outputs": [
        {
          "internalType": "uint256[]",
          "name": "prices",
          "type": "uint256[]"
        }
      ],
      "stateMutability": "view",
      "type": "function"
    },
    {
      "inputs": [
        {
          "internalType": "bytes32",
          "name": "marketId",
          "type": "bytes32"
        },
        {
          "internalType": "address",
          "name": "user",
          "type": "address"
        }
      ],
      "name": "getUserAllOutcomeBalances",
      "outputs": [
        {
          "internalType": "uint256[]",
          "name": "balances",
          "type": "uint256[]"
        }
      ],
      "stateMutability": "view",
      "type": "function"
    },
    {
      "inputs": [
        {
          "internalType": "bytes32",
          "name": "marketId",
          "type": "bytes32"
        },
        {
          "internalType": "address",
          "name": "user",
          "type": "address"
        }
      ],
      "name": "getUserLpShares",
      "outputs": [
        {
          "internalType": "uint256",
          "name": "lpBalance",
          "type": "uint256"
        }
      ],
      "stateMutability": "view",
      "type": "function"
    },
    {
      "inputs": [
        {
          "internalType": "bytes32",
          "name": "marketId",
          "type": "bytes32"
        },
        {
          "internalType": "uint8",
          "name": "outcomeIndex",
          "type": "uint8"
        },
        {
          "internalType": "address",
          "name": "user",
          "type": "address"
        }
      ],
      "name": "getUserOutcomeBalance",
      "outputs": [
        {
          "internalType": "uint256",
          "name": "balance",
          "type": "uint256"
        }
      ],
      "stateMutability": "view",
      "type": "function"
    },
    {
      "inputs": [],
      "name": "marketCore",
      "outputs": [
        {
          "internalType": "address",
          "name": "",
          "type": "address"
        }
      ],
      "stateMutability": "view",
      "type": "function"
    },
    {
      "inputs": [
        {
          "internalType": "address",
          "name": "",
          "type": "address"
        },
        {
          "internalType": "address",
          "name": "",
          "type": "address"
        },
        {
          "internalType": "uint256[]",
          "name": "",
          "type": "uint256[]"
        },
        {
          "internalType": "uint256[]",
          "name": "",
          "type": "uint256[]"
        },
        {
          "internalType": "bytes",
          "name": "",
          "type": "bytes"
        }
      ],
      "name": "onERC1155BatchReceived",
      "outputs": [
        {
          "internalType": "bytes4",
          "name": "",
          "type": "bytes4"
        }
      ],
      "stateMutability": "pure",
      "type": "function"
    },
    {
      "inputs": [
        {
          "internalType": "address",
          "name": "",
          "type": "address"
        },
        {
          "internalType": "address",
          "name": "",
          "type": "address"
        },
        {
          "internalType": "uint256",
          "name": "",
          "type": "uint256"
        },
        {
          "internalType": "uint256",
          "name": "",
          "type": "uint256"
        },
        {
          "internalType": "bytes",
          "name": "",
          "type": "bytes"
        }
      ],
      "name": "onERC1155Received",
      "outputs": [
        {
          "internalType": "bytes4",
          "name": "",
          "type": "bytes4"
        }
      ],
      "stateMutability": "pure",
      "type": "function"
    },
    {
      "inputs": [],
      "name": "outcomeToken1155",
      "outputs": [
        {
          "internalType": "address",
          "name": "",
          "type": "address"
        }
      ],
      "stateMutability": "view",
      "type": "function"
    },
    {
      "inputs": [
        {
          "internalType": "bytes32",
          "name": "marketId",
          "type": "bytes32"
        },
        {
          "internalType": "uint256",
          "name": "amount",
          "type": "uint256"
        }
      ],
      "name": "redeem",
      "outputs": [
        {
          "internalType": "uint256",
          "name": "collateralOut",
          "type": "uint256"
        }
      ],
      "stateMutability": "nonpayable",
      "type": "function"
    },
    {
      "inputs": [
        {
          "internalType": "bytes32",
          "name": "marketId",
          "type": "bytes32"
        },
        {
          "internalType": "uint8",
          "name": "outcomeIndex",
          "type": "uint8"
        },
        {
          "internalType": "uint256",
          "name": "amount",
          "type": "uint256"
        }
      ],
      "name": "redeemOutcome",
      "outputs": [
        {
          "internalType": "uint256",
          "name": "collateralOut",
          "type": "uint256"
        }
      ],
      "stateMutability": "nonpayable",
      "type": "function"
    },
    {
      "inputs": [
        {
          "internalType": "bytes32",
          "name": "marketId",
          "type": "bytes32"
        },
        {
          "internalType": "uint256",
          "name": "lpSharesIn",
          "type": "uint256"
        },
        {
          "internalType": "uint256",
          "name": "minCollateralOut",
          "type": "uint256"
        }
      ],
      "name": "removeLiquidity",
      "outputs": [
        {
          "internalType": "uint256",
          "name": "collateralOut",
          "type": "uint256"
        }
      ],
      "stateMutability": "nonpayable",
      "type": "function"
    },
    {
      "inputs": [
        {
          "internalType": "bytes32",
          "name": "marketId",
          "type": "bytes32"
        },
        {
          "internalType": "uint8",
          "name": "outcomeIndex",
          "type": "uint8"
        },
        {
          "internalType": "uint256",
          "name": "tokensIn",
          "type": "uint256"
        },
        {
          "internalType": "uint256",
          "name": "minCollateralOut",
          "type": "uint256"
        }
      ],
      "name": "sellOutcome",
      "outputs": [
        {
          "internalType": "uint256",
          "name": "collateralOut",
          "type": "uint256"
        }
      ],
      "stateMutability": "nonpayable",
      "type": "function"
    }
  ],
  "bytecode": "0x60e06040523480156200001157600080fd5b5060405162002572380380620025728339810160408190526200003491620000ec565b60016000556001600160a01b038316620000615760405163d92e233d60e01b815260040160405180910390fd5b6001600160a01b038216620000895760405163d92e233d60e01b815260040160405180910390fd5b6001600160a01b038116620000b15760405163d92e233d60e01b815260040160405180910390fd5b6001600160a01b0392831660805290821660a0521660c05262000136565b80516001600160a01b0381168114620000e757600080fd5b919050565b6000806000606084860312156200010257600080fd5b6200010d84620000cf565b92506200011d60208501620000cf565b91506200012d60408501620000cf565b90509250925092565b60805160a05160c05161231e62000254600039600081816102d6015281816103c101528181610620015281816107f601528181610b1801528181610ee60152818161122b015281816117db015281816118900152818161193201526119e70152600081816102fd015281816104860152818161053c0152818161058e01528181610741015281816108a00152818161099901528181610ca601528181610d9801528181610de1015281816110990152818161112a015281816113920152818161140d015281816114eb015281816115f40152818161190a015281816119b80152611a9a01526000818161034a01528181610a5b01528181610bbb01528181610f89015281816112cf015281816117b30152611861015261231e6000f3fe608060405234801561001057600080fd5b506004361061012c5760003560e01c8063a1d36161116100ad578063c664b6d611610071578063c664b6d6146102f8578063cf3c75961461031f578063d471975d14610332578063efda261614610345578063f23a6e611461036c57600080fd5b8063a1d3616114610241578063b2b7558a14610261578063b72cbe7314610283578063bc197c8114610296578063bfa1efae146102d157600080fd5b80636a6ae218116100f45780636a6ae218146101a357806371ace7ec146101dd5780637f43468d146101f0578063863f6a00146102035780639a821af11461022e57600080fd5b80631637bfa81461013157806329951e77146101575780633f5c944e1461016a5780635ffec1da1461017d578063673da15414610190575b600080fd5b61014461013f366004611c8f565b61038c565b6040519081526020015b60405180910390f35b610144610165366004611cd1565b610438565b610144610178366004611cd1565b6106f3565b61014461018b366004611d0e565b610970565b61014461019e366004611d46565b610a0d565b6101b66101b1366004611d68565b610c9f565b604080516001600160a01b03909416845260ff90921660208401529082015260600161014e565b6101446101eb366004611d81565b610d45565b6101446101fe366004611d0e565b610ea1565b610216610211366004611d68565b611065565b6040516001600160a01b03909116815260200161014e565b61014461023c366004611dad565b611070565b61025461024f366004611dad565b611106565b60405161014e9190611e18565b61027461026f366004611d68565b6112c8565b60405161014e93929190611e41565b610144610291366004611d0e565b611369565b6102b86102a4366004611f0a565b63bc197c8160e01b98975050505050505050565b6040516001600160e01b0319909116815260200161014e565b6102167f000000000000000000000000000000000000000000000000000000000000000081565b6102167f000000000000000000000000000000000000000000000000000000000000000081565b61014461032d366004611d81565b6113c9565b610254610340366004611d68565b6115db565b6102167f000000000000000000000000000000000000000000000000000000000000000081565b6102b861037a366004611fc9565b63f23a6e6160e01b9695505050505050565b600080600885901b60ff851617604051627eeac760e11b81526001600160a01b038581166004830152602482018390529192507f00000000000000000000000000000000000000000000000000000000000000009091169062fdd58e90604401602060405180830381865afa158015610409573d6000803e3d6000fd5b505050506040513d601f19601f8201168201806040525081019061042d9190612045565b9150505b9392505050565b600061044261166b565b8260000361046357604051631f2a200560e01b815260040160405180910390fd5b604051631923e44f60e01b81526004810186905260009081906001600160a01b037f00000000000000000000000000000000000000000000000000000000000000001690631923e44f90602401600060405180830381865afa1580156104cd573d6000803e3d6000fd5b505050506040513d6000823e601f3d908101601f191682016040526104f5919081019061210f565b5050915091508060ff168660ff16106105215760405163bdc9571560e01b815260040160405180910390fd5b6105366001600160a01b038316333088611695565b610561827f000000000000000000000000000000000000000000000000000000000000000087611702565b6040516329951e7760e01b81526004810188905260ff8716602482015260448101869052606481018590527f00000000000000000000000000000000000000000000000000000000000000006001600160a01b0316906329951e77906084016020604051808303816000875af11580156105df573d6000803e3d6000fd5b505050506040513d601f19601f820116820180604052508101906106039190612045565b604051637921219560e11b815290935060ff8716600889901b17907f00000000000000000000000000000000000000000000000000000000000000006001600160a01b03169063f242432a90610663903090339086908a9060040161217d565b600060405180830381600087803b15801561067d57600080fd5b505af1158015610691573d6000803e3d6000fd5b50506040805160ff8b168152602081018a90529081018790523392508a91507f06a73dbdc31376a40b6657d1cc67387168028f1e174c097219236008af69c375906060015b60405180910390a35050506106eb6001600055565b949350505050565b60006106fd61166b565b8260000361071e57604051631f2a200560e01b815260040160405180910390fd5b604051631923e44f60e01b81526004810186905260009081906001600160a01b037f00000000000000000000000000000000000000000000000000000000000000001690631923e44f90602401600060405180830381865afa158015610788573d6000803e3d6000fd5b505050506040513d6000823e601f3d908101601f191682016040526107b0919081019061210f565b5050915091508060ff168660ff16106107dc5760405163bdc9571560e01b815260040160405180910390fd5b604051637921219560e11b815260ff8716600889901b17907f00000000000000000000000000000000000000000000000000000000000000006001600160a01b03169063f242432a90610839903390309086908c9060040161217d565b600060405180830381600087803b15801561085357600080fd5b505af1158015610867573d6000803e3d6000fd5b50505050610873611796565b604051631fae4a2760e11b81526004810189905260ff8816602482015260448101879052606481018690527f00000000000000000000000000000000000000000000000000000000000000006001600160a01b031690633f5c944e906084016020604051808303816000875af11580156108f1573d6000803e3d6000fd5b505050506040513d601f19601f820116820180604052508101906109159190612045565b935061092b6001600160a01b0384163386611a41565b6040805160ff8916815260208101889052908101859052339089907f7ef5663c63e3a6d4afba89949d7090356c4cd62c7e12cc7c7a162a38f8035573906060016106d6565b604051633059310b60e21b81526004810184905260ff83166024820152604481018290526000907f00000000000000000000000000000000000000000000000000000000000000006001600160a01b03169063c164c42c906064015b602060405180830381865afa1580156109e9573d6000803e3d6000fd5b505050506040513d601f19601f820116820180604052508101906106eb9190612045565b6000610a1761166b565b81600003610a3857604051631f2a200560e01b815260040160405180910390fd5b604051633938ba0560e21b81526004810184905260009081906001600160a01b037f0000000000000000000000000000000000000000000000000000000000000000169063e4e2e81490602401606060405180830381865afa158015610aa2573d6000803e3d6000fd5b505050506040513d601f19601f82011682018060405250810190610ac691906121ca565b5090925090506002826002811115610ae057610ae0611e2b565b14610afe5760405163174b639360e11b815260040160405180910390fd5b604051637921219560e11b815260ff8216600887901b17907f00000000000000000000000000000000000000000000000000000000000000006001600160a01b03169063f242432a90610b5b903390309086908b9060040161217d565b600060405180830381600087803b158015610b7557600080fd5b505af1158015610b89573d6000803e3d6000fd5b50505050610b95611796565b604051633f3e190760e21b81526004810187905260ff83166024820152604481018690527f00000000000000000000000000000000000000000000000000000000000000006001600160a01b03169063fcf8641c90606401600060405180830381600087803b158015610c0757600080fd5b505af1158015610c1b573d6000803e3d6000fd5b505050506000610c2a87611a77565b8695509050610c436001600160a01b0382163387611a41565b6040805160ff8516815260208101889052908101869052339088907f90f76ea894fd28e4b71f45335c222a4edc567b49d8c092fccf114b366a92d9209060600160405180910390a350505050610c996001600055565b92915050565b60008060007f00000000000000000000000000000000000000000000000000000000000000006001600160a01b0316631923e44f856040518263ffffffff1660e01b8152600401610cf291815260200190565b600060405180830381865afa158015610d0f573d6000803e3d6000fd5b505050506040513d6000823e601f3d908101601f19168201604052610d37919081019061210f565b509196909550909350915050565b6000610d4f61166b565b82600003610d7057604051631f2a200560e01b815260040160405180910390fd5b6000610d7b85611a77565b9050610d926001600160a01b038216333087611695565b610dbd817f000000000000000000000000000000000000000000000000000000000000000086611702565b604051631c6b39fb60e21b81526004810186905260248101859052604481018490527f00000000000000000000000000000000000000000000000000000000000000006001600160a01b0316906371ace7ec906064016020604051808303816000875af1158015610e32573d6000803e3d6000fd5b505050506040513d601f19601f82011682018060405250810190610e569190612045565b6040805186815260208101839052919350339187917f37c4ff581a284aedfbd062bcf0619686da02a39aa2b58142268a8bb186a31da9910160405180910390a3506104316001600055565b6000610eab61166b565b81600003610ecc57604051631f2a200560e01b815260040160405180910390fd5b604051637921219560e11b815260ff8416600886901b17907f00000000000000000000000000000000000000000000000000000000000000006001600160a01b03169063f242432a90610f2990339030908690899060040161217d565b600060405180830381600087803b158015610f4357600080fd5b505af1158015610f57573d6000803e3d6000fd5b50505050610f63611796565b604051633f3e190760e21b81526004810186905260ff85166024820152604481018490527f00000000000000000000000000000000000000000000000000000000000000006001600160a01b03169063fcf8641c90606401600060405180830381600087803b158015610fd557600080fd5b505af1158015610fe9573d6000803e3d6000fd5b505050506000610ff886611a77565b84935090506110116001600160a01b0382163385611a41565b6040805160ff8716815260208101869052908101849052339087907f90f76ea894fd28e4b71f45335c222a4edc567b49d8c092fccf114b366a92d9209060600160405180910390a350506104316001600055565b6000610c9982611a77565b60405163556c6c9760e11b8152600481018390526001600160a01b0382811660248301526000917f00000000000000000000000000000000000000000000000000000000000000009091169063aad8d92e90604401602060405180830381865afa1580156110e2573d6000803e3d6000fd5b505050506040513d601f19601f820116820180604052508101906104319190612045565b604051631923e44f60e01b8152600481018390526060906000906001600160a01b037f00000000000000000000000000000000000000000000000000000000000000001690631923e44f90602401600060405180830381865afa158015611171573d6000803e3d6000fd5b505050506040513d6000823e601f3d908101601f19168201604052611199919081019061210f565b50509150508060ff1667ffffffffffffffff8111156111ba576111ba61205e565b6040519080825280602002602001820160405280156111e3578160200160208202803683370190505b50915060005b8160ff168160ff1610156112c0576000600886901b60ff831617604051627eeac760e11b81526001600160a01b038781166004830152602482018390529192507f00000000000000000000000000000000000000000000000000000000000000009091169062fdd58e90604401602060405180830381865afa158015611273573d6000803e3d6000fd5b505050506040513d601f19601f820116820180604052508101906112979190612045565b848360ff16815181106112ac576112ac612216565b6020908102919091010152506001016111e9565b505092915050565b60008060007f00000000000000000000000000000000000000000000000000000000000000006001600160a01b031663e4e2e814856040518263ffffffff1660e01b815260040161131b91815260200190565b606060405180830381865afa158015611338573d6000803e3d6000fd5b505050506040513d601f19601f8201168201806040525081019061135c91906121ca565b9250925092509193909250565b60405163926cabc560e01b81526004810184905260ff83166024820152604481018290526000907f00000000000000000000000000000000000000000000000000000000000000006001600160a01b03169063926cabc5906064016109cc565b60006113d361166b565b826000036113f457604051631f2a200560e01b815260040160405180910390fd5b604051631923e44f60e01b8152600481018590526000907f00000000000000000000000000000000000000000000000000000000000000006001600160a01b031690631923e44f90602401600060405180830381865afa15801561145c573d6000803e3d6000fd5b505050506040513d6000823e601f3d908101601f19168201604052611484919081019061210f565b505091505060008160ff1667ffffffffffffffff8111156114a7576114a761205e565b6040519080825280602002602001820160405280156114d0578160200160208202803683370190505b506040516307419ca160e31b81529091506001600160a01b037f00000000000000000000000000000000000000000000000000000000000000001690633a0ce5089061152690899089908990879060040161222c565b6000604051808303816000875af1158015611545573d6000803e3d6000fd5b505050506040513d6000823e601f3d908101601f1916820160405261156d9190810190612251565b509250600061157b87611a77565b90506115916001600160a01b0382163386611a41565b6040805187815260208101869052339189917f1f30b0e946a948aa6802d131a236a2eff639a287f4c361b42af838522ab38702910160405180910390a35050506104316001600055565b60405163d471975d60e01b8152600481018290526060907f00000000000000000000000000000000000000000000000000000000000000006001600160a01b03169063d471975d90602401600060405180830381865afa158015611643573d6000803e3d6000fd5b505050506040513d6000823e601f3d908101601f19168201604052610c999190810190612298565b60026000540361168e57604051633ee5aeb560e01b815260040160405180910390fd5b6002600055565b6040516001600160a01b0384811660248301528381166044830152606482018390526116fc9186918216906323b872dd906084015b604051602081830303815290604052915060e01b6020820180516001600160e01b038381831617835250505050611b14565b50505050565b604051636eb1769f60e11b81523060048201526001600160a01b0383811660248301526000919085169063dd62ed3e90604401602060405180830381865afa158015611752573d6000803e3d6000fd5b505050506040513d601f19601f820116820180604052508101906117769190612045565b9050818110156116fc576116fc6001600160a01b03851684600019611b89565b60405163e985e9c560e01b81523060048201526001600160a01b037f0000000000000000000000000000000000000000000000000000000000000000811660248301527f0000000000000000000000000000000000000000000000000000000000000000169063e985e9c590604401602060405180830381865afa158015611822573d6000803e3d6000fd5b505050506040513d601f19601f8201168201806040525081019061184691906122cd565b6118ed5760405163a22cb46560e01b81526001600160a01b037f000000000000000000000000000000000000000000000000000000000000000081166004830152600160248301527f0000000000000000000000000000000000000000000000000000000000000000169063a22cb46590604401600060405180830381600087803b1580156118d457600080fd5b505af11580156118e8573d6000803e3d6000fd5b505050505b60405163e985e9c560e01b81523060048201526001600160a01b037f0000000000000000000000000000000000000000000000000000000000000000811660248301527f0000000000000000000000000000000000000000000000000000000000000000169063e985e9c590604401602060405180830381865afa158015611979573d6000803e3d6000fd5b505050506040513d601f19601f8201168201806040525081019061199d91906122cd565b611a3f5760405163a22cb46560e01b81526001600160a01b037f000000000000000000000000000000000000000000000000000000000000000081166004830152600160248301527f0000000000000000000000000000000000000000000000000000000000000000169063a22cb46590604401600060405180830381600087803b158015611a2b57600080fd5b505af11580156116fc573d6000803e3d6000fd5b565b6040516001600160a01b03838116602483015260448201839052611a7291859182169063a9059cbb906064016116ca565b505050565b604051631923e44f60e01b81526004810182905260009081906001600160a01b037f00000000000000000000000000000000000000000000000000000000000000001690631923e44f90602401600060405180830381865afa158015611ae1573d6000803e3d6000fd5b505050506040513d6000823e601f3d908101601f19168201604052611b09919081019061210f565b509195945050505050565b600080602060008451602086016000885af180611b37576040513d6000823e3d81fd5b50506000513d91508115611b4f578060011415611b5c565b6001600160a01b0384163b155b156116fc57604051635274afe760e01b81526001600160a01b038516600482015260240160405180910390fd5b604080516001600160a01b038416602482015260448082018490528251808303909101815260649091019091526020810180516001600160e01b031663095ea7b360e01b179052611bda8482611c19565b6116fc576040516001600160a01b03848116602483015260006044830152611c0f91869182169063095ea7b3906064016116ca565b6116fc8482611b14565b6000806000806020600086516020880160008a5af192503d91506000519050828015611c5e57508115611c4f5780600114611c5e565b6000866001600160a01b03163b115b9695505050505050565b60ff81168114611c7757600080fd5b50565b6001600160a01b0381168114611c7757600080fd5b600080600060608486031215611ca457600080fd5b833592506020840135611cb681611c68565b91506040840135611cc681611c7a565b809150509250925092565b60008060008060808587031215611ce757600080fd5b843593506020850135611cf981611c68565b93969395505050506040820135916060013590565b600080600060608486031215611d2357600080fd5b833592506020840135611d3581611c68565b929592945050506040919091013590565b60008060408385031215611d5957600080fd5b50508035926020909101359150565b600060208284031215611d7a57600080fd5b5035919050565b600080600060608486031215611d9657600080fd5b505081359360208301359350604090920135919050565b60008060408385031215611dc057600080fd5b823591506020830135611dd281611c7a565b809150509250929050565b600081518084526020808501945080840160005b83811015611e0d57815187529582019590820190600101611df1565b509495945050505050565b6020815260006104316020830184611ddd565b634e487b7160e01b600052602160045260246000fd5b6060810160038510611e6357634e487b7160e01b600052602160045260246000fd5b93815260ff929092166020830152151560409091015290565b60008083601f840112611e8e57600080fd5b50813567ffffffffffffffff811115611ea657600080fd5b6020830191508360208260051b8501011115611ec157600080fd5b9250929050565b60008083601f840112611eda57600080fd5b50813567ffffffffffffffff811115611ef257600080fd5b602083019150836020828501011115611ec157600080fd5b60008060008060008060008060a0898b031215611f2657600080fd5b8835611f3181611c7a565b97506020890135611f4181611c7a565b9650604089013567ffffffffffffffff80821115611f5e57600080fd5b611f6a8c838d01611e7c565b909850965060608b0135915080821115611f8357600080fd5b611f8f8c838d01611e7c565b909650945060808b0135915080821115611fa857600080fd5b50611fb58b828c01611ec8565b999c989b5096995094979396929594505050565b60008060008060008060a08789031215611fe257600080fd5b8635611fed81611c7a565b95506020870135611ffd81611c7a565b94506040870135935060608701359250608087013567ffffffffffffffff81111561202757600080fd5b61203389828a01611ec8565b979a9699509497509295939492505050565b60006020828403121561205757600080fd5b5051919050565b634e487b7160e01b600052604160045260246000fd5b600082601f83011261208557600080fd5b8151602067ffffffffffffffff808311156120a2576120a261205e565b8260051b604051601f19603f830116810181811084821117156120c7576120c761205e565b6040529384528581018301938381019250878511156120e557600080fd5b83870191505b84821015612104578151835291830191908301906120eb565b979650505050505050565b6000806000806080858703121561212557600080fd5b845161213081611c7a565b602086015190945061214181611c68565b60408601516060870151919450925067ffffffffffffffff81111561216557600080fd5b61217187828801612074565b91505092959194509250565b6001600160a01b0394851681529290931660208301526040820152606081019190915260a06080820181905260009082015260c00190565b805180151581146121c557600080fd5b919050565b6000806000606084860312156121df57600080fd5b8351600381106121ee57600080fd5b60208501519093506121ff81611c68565b915061220d604085016121b5565b90509250925092565b634e487b7160e01b600052603260045260246000fd5b848152836020820152826040820152608060608201526000611c5e6080830184611ddd565b6000806040838503121561226457600080fd5b82519150602083015167ffffffffffffffff81111561228257600080fd5b61228e85828601612074565b9150509250929050565b6000602082840312156122aa57600080fd5b815167ffffffffffffffff8111156122c157600080fd5b6106eb84828501612074565b6000602082840312156122df57600080fd5b610431826121b556fea264697066735822122063a5d95b829b64cf2cdfbb2bf5a4c487cc7d9b138b194fc2a92d6aacc9a4ebc064736f6c63430008140033",
  "linkReferences": {},
  "deployedLinkReferences": {}
}